:100CC70050617373776F72643A002020204F4B0096
:060CD7004552524F52008D
:080D3C00021B00000218000078
:10098900120CF37BFF7A0C79C77D017F01120C6988
:100999001208008F1AE51A60F7D3940A5035C3E597
:1009A900199404E51894005078AE1BAF1C7C007DA7
:1009B9000A120A988E1B8F1CE51A75F00A84E5F055
:1009C900251CF51CE4351BF51B0519E519700205F5
:1009D90018804EE51A640B703AE51CB4C91DE51B75
:1009E900B410187BFF7A0C79D17D0C7F01120C6948
:1009F900E4F51BF51CF518F51980267BFF7A0C79AF
:100A0900D77D0C7F01120C69E4F51BF51CF518F56F
:100A190019800EE51AB40C1AE4F51BF51CF518F546
:100A290019750C04AB1CAA1B7D017F02120CAA02CA
:100A39000999E51A640D6003020999AE1BAF1CFC04
:100A49007D0A120AAA8E1B8F1CE519151970021549
:100A590018750C04AB1CAA1B7D017F02120CAA029B
:020A69000999E9
:100D07007D027CEFDCFEDDFCEF1F70011E144E70D0
:010D1700F3E8
:010D180022B8
:060D1900C2A58F80D2A7E5
:080D1F007F027EEFDEFEDFFC27
:010D270022A9
:0A0D2800C2A6120D19C2A7020D1F8A
:100C8C00CFCDCFCECCCE120AAA7C007D0A120AAAF6
:040C9C00ED2430FF14
:0A0CA000D2A6120D19C2A7020D1F03
:100CDD00AE07BE0104ED148006BE0209ED243F44AB
:060CED0080FF120D282219
:100CF3007F38120D287F0C120D287F06120D287FD6
:040D030001020D28B4
:0A0D3200AC03120CDDAF04020CA0AC
:060C69008B088A09890ACC
:100C6F00120CDDE4FDAB08AA09A90A8D8275830079
:0C0C7F00120A6BFF6006120CA00D80E949
:010C8B002246
:0C0C36007F0AEA24FFFDE434FFFC7E008E
:080C42008E0D8F0E8C0F8D103A
:100C4A007F017E00E4FBEBC39510E50F6480F87426
:0E0C5A008098500AAC0DAD0E120A980B80E87F
:010C68002269
:040CAA008A0A8B0B1C
:100CAE00120CDDAA0CEAD39400400D120C36AC0ADD
:080CBE00AD0B120C8C1A80ED45
:010CC600220B
:100B8B00120CDDC3EA64809480400B7F2B120CA007
:100B9B008A168B17800E7F2D120CA0C3E49BF517C2
:100BAB00E49AF516AA15EAD39400400D120C36AC54
:090BBB0016AD17120C8C1A80ED26
:010BC400220E
:040BC5008A1F8B20D8
:100BC900120CDDAA21EAD3940040297F10120C38B7
:100BD900AC1FAD20CFCDCFCECCCE120AAAEF540F89
:100BE900FEC3940AEE5004243080022437FF120C0D
:040BF900A01A80D1ED
:010BFD0022D5
:040BFE008A248B2595
:100C0200120CDDAA26EAD394004028EA24FFFDE470
:100C120034FFFC7F027E00120C42AC24AD25CFCD06
:100C2200CFCECCCE120AAAEF54012430FF120CA070
:030C32001A80D253
:010C3500229C
:10080000E4F5087590FFC2932097137F05FE120D43
:10081000073097FD7F057E00120D077508012096B1
:10082000147F057E00120D073096FD7F057E0012B5
:100830000D077508052095147F057E00120D073001
:1008400095FD7F057E00120D077508092094147F21
:10085000057E00120D073094FD7F057E00120D0706
:1008600075080D7590FFC2922097147F057E0012C7
:100870000D073097FD7F057E00120D0775080220D9
:1008800096147F057E00120D073096FD7F057E00D1
:10089000120D077508062095147F057E00120D07BE
:1008A0003095FD7F057E00120D0775080A2094140F
:1008B0007F057E00120D073094FD7F057E00120D2E
:1008C0000775080E7590FFC2912097147F057E0072
:1008D000120D073097FD7F057E00120D0775080386
:1008E0002096147F057E00120D073096FD7F057E51
:1008F00000120D077508072095147F057E00120D64
:10090000073095FD7F057E00120D0775080B2094BA
:10091000147F057E00120D073094FD7F057E0012C6
:100920000D0775080F7590FFC2902097147F057E04
:1009300000120D073097FD7F057E00120D07750828
:10094000042096147F057E00120D073096FD7F056A
:100950007E00120D077508082095147F057E001291
:100960000D073095FD7F057E00120D0775080C20E0
:1009700094147F057E00120D073094FD7F057E00E4
:08098000120D07750810AF0805
:01098800224C
:03000000020AFFF2
:0C0AFF00787FE4F6D8FD758126020B46D6
:100A6B00BB010CE58229F582E5833AF583E0225040
:100A7B0006E92582F8E622BBFE06E92582F8E2228A
:0D0A8B00E58229F582E5833AF583E49322A4
:100A9800EF8DF0A4A8F0CF8CF0A428CE8DF0A42E72
:020AA800FE222C
:100AAA00BC000BBE0029EF8DF084FFADF022E4CC30
:100ABA00F875F008EF2FFFEE33FEEC33FCEE9DECF9
:100ACA00984005FCEE9DFE0FD5F0E9E4CEFD22ED3F
:100ADA00F8F5F0EE8420D21CFEADF075F008EF2F89
:100AEA00FFED33FD4007985006D5F0F222C398FD7A
:050AFA000FD5F0EA2217
:100B0B00020989E493A3F8E493A34003F68001F26E
:100B1B0008DFF48029E493A3F85407240CC8C333EB
:100B2B00C4540F4420C8834004F456800146F6DFBA
:100B3B00E4800B0102040810204080900D3CE47E01
:100B4B00019360BCA3FF543F30E509541FFEE493AF
:100B5B00A360010ECF54C025E060A840B8E493A376
:100B6B00FAE493A3F8E493A3C8C582C8CAC583CAA1
:100B7B00F0A3C8C582C8CAC583CADFE9DEE780BE59
:010D440000AE
:00000001FF
