:0308D0000108001C
:1008A30012088CAF081208C805087F0D7E001208D5
:0308B300B680F01C
:1008B6007D027CEFDCFEDDFCEF1F70011E144E7026
:0108C600F33E
:0108C700220E
:10088C0075984043878053890F438920758BF47585
:07089C008DF4C2ABD28E22E5
:0808C8008F993099FDC29922BD
:03000000020800F3
:0C080000787FE4F6D8FD758108020847F7
:10080C000208A3E493A3F8E493A34003F68001F257
:10081C0008DFF48029E493A3F85407240CC8C333ED
:10082C00C4540F4420C8834004F456800146F6DFBC
:10083C00E4800B01020408102040809008D0E47E74
:10084C00019360BCA3FF543F30E509541FFEE493B1
:10085C00A360010ECF54C025E060A840B8E493A378
:10086C00FAE493A3F8E493A3C8C582C8CAC583CAA3
:10087C00F0A3C8C582C8CAC583CADFE9DEE780BE5B
:0108D3000024
:00000001FF
