:0C01CF00011900011A00011B00011C00B6
:03000B000201A44B
:1001A400C0E0C0F0C0D0758AA4758CFF0519E519AC
:1001B40075F0648485F019E519C3951A5004D2903A
:0B01C4008002C290D0D0D0F0D0E0321A
:100164001201EF1201038F1BE51B64017029051CAA
:10017400531C03E51C7004F51A801CE51CB401052E
:10018400751A058012E51CB40205751A328008E55B
:100194001CB40303751A64AD1C7F0112009A80C35A
:100206007D027CC7DCFEDDFCEF1F70011E144E7004
:01021600F3F4
:0102170022C4
:10010300E4F51D20B1137F05FE12020630B1FD7F19
:10011300057E00120206751D0120B0147F057E00C6
:1001230012020630B0FD7F057E00120206751D0225
:1001330020B2147F057E0012020630B2FD7F057ED9
:1001430000120206751D0320B3147F057E00120200
:100153000630B3FD7F057E00120206751D04AF1D38
:010163002279
:1001DB0011083F065B4F666D7D077F6F777C395E3D
:0301EB0079710027
:10009A00EF14B4080050549000AF75F003A4C58360
:1000AA0025F0C583730200C70200CB0200CF02000D
:1000BA00D30200D70200DF0200E70200EFD2A480D9
:1000CA000ED2A48012D2A48016D2A4801AC2A4D2BC
:1000DA00A3D2A28016C2A4D2A3C2A2800EC2A4C274
:1000EA00A3D2A28006C2A4C2A3C2A274082DF8E6B3
:0900FA00F5807F017E0002020680
:1001EF005389F0438901758AA4758CFFC28DD28C17
:0701FF00D2A9D2AFC2B92260
:0300000002000EED
:0C000E00787FE4F6D8FD75811D020055D6
:10001A00020164E493A3F8E493A34003F68001F297
:10002A0008DFF48029E493A3F85407240CC8C333E7
:10003A00C4540F4420C8834004F456800146F6DFB6
:10004A00E4800B01020408102040809001CFE47E76
:10005A00019360BCA3FF543F30E509541FFEE493AB
:10006A00A360010ECF54C025E060A840B8E493A372
:10007A00FAE493A3F8E493A3C8C582C8CAC583CA9D
:10008A00F0A3C8C582C8CAC583CADFE9DEE780BE55
:0101EE000010
:00000001FF
