:10020E007D027CEFDCFEDDFCEF1F70011E144E70D4
:01021E00F3EC
:01021F0022BC
:100220007D027CC7DCFEDDFCEF1F70011E144E70EA
:01023000F3DA
:0102310022AA
:03000B0002009A56
:10009A00C0E0C0F0C083C082C0D075D000C000C02C
:0D00AA0001C002C003C004C005C006C007AD
:1000B700758A66758CFC051EE51E7002051DC394C6
:1000C70014E51D94004009751D00751E001201728C
:1000D7000520E5207002051FC39402E51F94004028
:0A00E70009751F007520001201C703
:1000F100D007D006D005D004D003D002D001D00063
:0B010100D0D0D082D083D0F0D0E0320C
:050238001201E180FE4F
:1001E1005389F0438901758A66758CFCC28DD28C66
:0701F100D2A9D2AFC2B9226E
:1001AB000914000A0A0A0A0A0A0A0A0B093F065B23
:0B01BB004F666D7D077F6F000108019B
:0700030074142FF8A605227A
:10010C00E4F580EF14B40800505490012475F0030A
:10011C00A4C58325F0C5837302013C020140020192
:10012C004402014802014C02015402015C020164C8
:10013C00D2A4800ED2A48012D2A48016D2A4801A8B
:10014C00C2A4D2A3D2A28016C2A4D2A3C2A2800EF1
:10015C00C2A4C2A3D2A28006C2A4C2A3C2A2740922
:06016C002DF8E6F58022EB
:1001C700AF08050874142FF8E6FDAF0812010CE517
:0901D70008C394094003750801F6
:0101E00022FC
:05023200E4AF25F525F5
:0102370022A4
:1001F800E4FF20B1010F20B0027F0220B2027F038A
:0502080020B3027F0499
:01020D0022CE
:100172008523241201F88F23E524B40107E52370B7
:1001820003752501E524B40207E5237003752502F2
:10019200E524B40307E5237003752503E524B404BD
:0801A20007E523700375250435
:0101AA002232
:0300000002000EED
:0C000E00787FE4F6D8FD758125020055CE
:10001A00020238E493A3F8E493A34003F68001F2C2
:10002A0008DFF48029E493A3F85407240CC8C333E7
:10003A00C4540F4420C8834004F456800146F6DFB6
:10004A00E4800B01020408102040809001ABE47E9A
:10005A00019360BCA3FF543F30E509541FFEE493AB
:10006A00A360010ECF54C025E060A840B8E493A372
:10007A00FAE493A3F8E493A3C8C582C8CAC583CA9D
:10008A00F0A3C8C582C8CAC583CADFE9DEE780BE55
:0101C6000038
:00000001FF
