:020000040800F2
:10000000F0B3002079020008931C00088B1C000844
:100010008F1C000899070008451F00080000000019
:10002000000000000000000000000000E1010008E6
:100030009D0700080000000025020008BD1C000804
:10004000930200089302000893020008930200083C
:10005000930200089302000893020008930200082C
:10006000930200089302000893020008930200081C
:10007000930200089302000893020008930200080C
:1000800093020008930200089302000893020008FC
:1000900093020008930200089302000893020008EC
:1000A00093020008930200089302000893020008DC
:1000B00093020008930200089302000893020008CC
:1000C00093020008930200089302000893020008BC
:1000D00093020008351F00089302000893020008ED
:1000E000930200089302000893020008930200089C
:1000F000930200089302000893020008930200088C
:10010000930200089302000893020008930200087B
:100110009302000893020008D51C0008930200080F
:10012000930200089302000893020008930200085B
:1001300000F002F800F045F80AA090E8000C8244B4
:100140008344AAF10107DA4501D100F03AF8AFF291
:10015000090EBAE80F0013F0010F18BFFB1A43F0A5
:1001600001031847147C0000347C0000103A24BFBF
:1001700078C878C1FAD8520724BF30C830C144BF0C
:1001800004680C607047000000230024002500264E
:10019000103A28BF78C1FBD8520728BF30C148BFEA
:1001A0000B607047642900F0F380782900F02C81FF
:1001B000732900F05182002070471FB51FBD10B594
:1001C00010BD00F0B7FA1146FFF7F7FF05F0B0F9E0
:1001D00000F0D5FA03B4FFF7F2FF03BC01F0D0FE44
:1001E000224B19680868B0E8F00F80F30988BFF364
:1001F0006F8F4FF0000080F311884EF00D0E7047A6
:100200000000000006480068006880F3088862B6B5
:1002100061B6BFF34F8FBFF36F8F00DF00BF00BF2A
:1002200008ED00E0EFF30980BFF36F8F0F4B1A6802
:1002300020E9F00F106008B54FF0500080F31188EE
:10024000BFF34F8FBFF36F8F06F0ACFD4FF0000090
:1002500080F31188BDE8084019680868B0E8F00F1D
:1002600080F30988BFF36F8F704700BF48000020FC
:10027000EFF30580704700000948804709480047B0
:10028000FEE7FEE7FEE7FEE7FEE7FEE7FEE7FEE746
:10029000FEE7FEE704480549054A064B70470000A3
:1002A000D11C000831010008F0AD0020F0B300209F
:1002B000F0AF0020F0AF0020704700000FB40449F9
:1002C00010B503AA029800F0CBF910BC5DF814FB3E
:1002D000180000202DE9F0410E460446002020625F
:1002E0002046E168884730B3252805D0D4E90121AC
:1002F0009047206A401CF2E7E168204600278847C3
:10030000050018D0A5F14100192802D820354FF476
:1003100000673246294620462760FFF743FF40B179
:10032000012804D0F61D26F007060836D8E7361D4A
:10033000D6E72846DAE7206ABDE8F08170B50C46BA
:100340000546012A05D02878800600D5EA690023F1
:1003500002E0012305E05B1C934202D2E05C00282E
:10036000F9D1A869E618C01AA861286A1844286259
:100370002846AFF3008004E0D5E9012114F8010B11
:100380009047B442F8D32846AFF3008070BD000018
:100390002DE9F0410646002410687529314616A55E
:1003A00010D0AFF30080002802DA404213A507E026
:1003B00031688A0701D512A502E0490704D511A5C5
:1003C000012401E0AFF3008000210A2206F1240796
:1003D00009E0B0FBF2FCB0FBF2F302FB1C00303092
:1003E00078541846491C0028F3D123462A46304643
:1003F000BDE8F04100F0ACB8000000002D000000A6
:100400002B0000002000000070B504460D46214678
:100410001068AFF300802188090502D50F4A7A449D
:1004200002E00E4A7A440E32002104F1240305E072
:1004300000F00F060009965D5E54491C0028F7D1B4
:1004400020780023000704D5702D02D009B10223C3
:1004500011322046BDE8704000F07AB82E790000D5
:10046000032A40F2308010F0030C00F0158011F8E0
:10047000013BBCF1020F624498BF11F801CB00F8B8
:10048000013B38BF11F8013BA2F1040298BF00F80C
:1004900001CB38BF00F8013B11F0030300F0F280FC
:1004A000083AC0F0088051F8043B083A51F804CBF0
:1004B000A0E80810F5E7121D5CBF51F8043B40F8B6
:1004C000043BAFF30080D20724BF11F8013B11F8C1
:1004D00001CB48BF11F8012B24BF00F8013B00F805
:1004E00001CB48BF00F8012B704702F0FF0343EA3D
:1004F000032242EA024200F0F9B84FF0000200B5D0
:10050000134694469646203922BFA0E80C50A0E836
:100510000C50B1F12001BFF4F7AF090728BFA0E8E4
:100520000C5048BF0CC05DF804EB890028BF40F8B0
:10053000042B08BF704748BF20F8022B11F0804FF2
:1005400018BF00F8012B704770477047704770471D
:100550002DE9F0470D4699469246044600F12408DD
:100560000168880604D5E06921F01001216000E0EF
:100570000120A84201DD471B00E00027A1697A198C
:1005800002EB0900081AA0612078C00602D42046B8
:10059000AFF30080002608E0D4E901211AF8060034
:1005A0009047206A401C761C20624E45F4DB207880
:1005B000C0060AD52046AFF3008006E0D4E9012149
:1005C00030209047206A401C2062381EA7F10107A6
:1005D000F4DC07E0D4E9012118F805009047206A0F
:1005E000401C2062281EA5F10105F3DC2046AFF374
:1005F00000802078000602D50220BDE8F0870120A7
:10060000FBE7000001694A1C02610878704700B5E9
:100610008FB0CDE901310021059105497944CDE93B
:10062000031011466846FFF755FE0FB000BD0000ED
:10063000E5FFFFFF10B5436913B1AFF3008001E0A0
:10064000FFF77CFE012010BD127800F124010A7032
:1006500000224A700122EDE711684FF0FF32E9E70E
:10066000074B70B50D467B44FFF7D1FF0446284683
:1006700000F05CF810B14FF0FF3070BD204670BD47
:10068000CB19000010B5203AC0F00B80B1E818502B
:10069000203AA0E81850B1E81850A0E81850BFF46C
:1006A000F5AF5FEA027C24BFB1E81850A0E818500B
:1006B00044BF18C918C0BDE810405FEA827C24BF5F
:1006C00051F8043B40F8043B08BF7047D20728BFED
:1006D00031F8023B48BF11F8012B28BF20F8023B3C
:1006E00048BF00F8012B70474FF000020429C0F00A
:1006F000128010F0030C3FF402AFCCF1040CBCF1FB
:10070000020F18BF00F8012BA8BF20F8022BA1EBA5
:100710000C01FFF7F4BE5FEAC17C24BF00F8012B97
:1007200000F8012B48BF00F8012B7047007B00F058
:1007300080007047754600F02BF8AE46050069460C
:10074000534620F00700854618B020B5FFF7A2FDFC
:10075000BDE820404FF000064FF000074FF00008C2
:100760004FF0000B21F00701AC46ACE8C009ACE843
:10077000C009ACE8C009ACE8C0098D46704710B5A7
:100780000446AFF300802046BDE81040FFF722BDCD
:10079000004870478CAD002000BFFEE770470000A6
:1007A00070B50446B3F5804F13D1D1E9000540EA96
:1007B00005108D6840EA05208D6928438D8940EA3F
:1007C000054054F82250064E3540284344F8220094
:1007D00003E06FF0704044F82200002070BD00007C
:1007E0000000F0CF70B50246086852F8200020F0F3
:1007F00001000E6842F826008868082801D14023CD
:1008000000E00023486818438E683043CE683043C8
:100810000E6930434E693043CE6930430E6A30432F
:100820004E6A30438E6A3043CE6A30430E6B40EAE4
:10083000060488690443486B0443074D45F480650A
:1008400045F4E025086852F82000A84320430E68CC
:1008500042F82600002070BD7FFB080010B503465B
:10086000D1E9000440EA04108C6840EA04208C8935
:1008700040EA0444088A401E44EA0054087D801E71
:1008800044EA00608C692043541C53F8244004F06F
:1008900040442043541C43F82400002010BD0000B5
:1008A00070B50446002594F82100022803D00420E6
:1008B000A0630125C1E02068006820F00E002168D7
:1008C00008602068006820F00100216808605C4929
:1008D0002068884252D95A4978392068884201D123
:1008E000012047E0564964392068884201D1102030
:1008F00040E0534950392068884201D1801539E0E1
:100900004F493C392068884201D1801432E04C497B
:1009100028392068884202D14FF480302AE04849C3
:1009200014392068884202D14FF4801022E04449F3
:100930002068884201D140041CE042492068884276
:1009400001D1012016E03F4914312068884201D1CD
:1009500010200FE03B4928312068884201D18015E2
:1009600008E038493C312068884201D1801401E018
:100970004FF480303349091F086051E0304978391D
:100980002068884201D1012047E02D496439206860
:10099000884201D1102040E029495039206888421E
:1009A00001D1801539E026493C392068884201D1BF
:1009B000801432E0224928392068884202D14FF45D
:1009C00080302AE01E4914392068884202D14FF451
:1009D000801022E01A492068884201D140041CE0BE
:1009E00018492068884201D1012016E015491431C8
:1009F0002068884201D110200FE012492831206878
:100A0000884201D1801508E00E493C3120688842B7
:100A100001D1801401E04FF48030094980394860E9
:100A2000012084F8210000BF002084F8200000BFCE
:100A3000606B10B12046616B8847284670BD00008E
:100A400080000240080402402DE9F84702460023D6
:100A50009C467BE14FF0010808FA03F4D1F80080CE
:100A600008EA0400A0427DD1DFF8F4A2D1F80480A6
:100A7000A8EB0A09D0453AD014DCB8F1030F50D0E6
:100A800009DCB8F1000F31D0B8F1010F1CD0B8F17A
:100A9000020F49D120E0B8F1110F18D0B8F1120FB0
:100AA00042D11EE0B9F5881F25D006DCB9F5803F9C
:100AB00020D0B9F5801F37D11AE0B9F5001F18D042
:100AC000B9F5041F30D117E0D1F80CC02DE0D1F8F2
:100AD0000C8008F1040C28E0D1F80C8008F1080C17
:100AE00023E0D1F80C8008F10C0C1EE000BF00BF21
:100AF00000BF00BF00BF00BFD1F80880B8F1000FF1
:100B000002D14FF0040C0BE0D1F80880B8F1010FCE
:100B100003D14FF0080C146102E04FF0080C54614F
:100B200003E04FF0000C00E000BF00BFFF2801D839
:100B3000904601E002F104084646FF2802D84FEA39
:100B4000830803E0A3F108084FEA88084746D6F86F
:100B500000804FF00F0909FA07F928EA09080CFA92
:100B600007F900E07AE048EA0908C6F80080D1F801
:100B7000048008F08058B8F1805F6FD100BFDFF8C3
:100B8000E481D8F8188048F00108DFF8D891C9F856
:100B90001880C846D8F8188008F00108CDF8008001
:100BA00000BF00BF4FEAB9384FEA930958F82950FF
:100BB0004FEA83784FEA18794FF00F0808FA09F8DE
:100BC00025EA0805DFF8A081424502D14FF0000870
:100BD00024E0DFF89881424502D14FF001081DE082
:100BE000DFF88C81424502D14FF0020816E0DFF8B1
:100BF0008481424502D14FF003080FE0DFF878818D
:100C0000424502D14FF0040808E0DFF87081424508
:100C100002D14FF0050801E04FF006084FEA837952
:100C20004FEA197908FA09F848EA0505DFF8508112
:100C30004FEA930948F82950D1F8048008F4803825
:100C4000B8F5803F0BD1DFF83C81D8F8008048EA46
:100C50000008DFF83091C9F800800AE075E0DFF89D
:100C60002481D8F8008028EA0008DFF81891C9F834
:100C70000080D1F8048008F40038B8F5003F0ED1A8
:100C8000DFF8008108F10408D8F8008048EA00087D
:100C9000DFF8F09009F10409C9F800800DE0DFF8F1
:100CA000E48008F10408D8F8008028EA0008DFF89A
:100CB000D49009F10409C9F80080D1F8048008F43F
:100CC0008018B8F5801F0ED1DFF8B88008F1080849
:100CD000D8F8008048EA0008DFF8A89009F1080970
:100CE000C9F800800DE0DFF89C8008F10808D8F80A
:100CF000008028EA0008DFF88C9009F10809C9F89B
:100D00000080D1F8048008F40018B8F5001F0ED157
:100D1000DFF8708008F10C08D8F8008048EA000875
:100D2000DFF8609009F10C09C9F800800DE0DFF8E8
:100D3000548008F10C08D8F8008028EA0008DFF891
:100D4000449009F10C09C9F800805B1CD1F80080BF
:100D500028FA03F8B8F1000F7FF47CAEBDE8F887FD
:100D6000000011100010024000080140000C01407A
:100D7000001001400014014000180140001C014017
:100D80000800014000040140024693680B400BB18B
:100D9000012000E00020704710B5C26821EA02037C
:100DA00002EA010443EA0443036110BD0AB1016190
:100DB00001E00B04036170470148006870470000C0
:100DC00020000020034800680349097808440149CD
:100DD00008607047200000202800002010B5084857
:100DE000006840F0100006490860032000F080F819
:100DF0000F2000F007F800F02BF8002010BD0000D5
:100E00000020024070B504460E4800784FF47A7115
:100E1000B1FBF0F00C490968B1FBF0F5284600F091
:100E200073FC08B1012070BD102C07D200222146AE
:100E3000501E00F01EF80548046001E00120F2E7B2
:100E40000020F0E7280000200000002024000020FF
:100E5000704701460846002809DB00F01F03012205
:100E60009A4043099B0003F1E023C3F8002100BF2F
:100E700070472DE9F05F80460D461646002701F0C9
:100E800063F8074639462A46334601F00700C0F1A9
:100E9000070ABAF1040F02D94FF0040A01E0C0F1C9
:100EA000070AD14600F1040ABAF1070F02D24FF047
:100EB000000A01E0A0F1030AD4464FF0010A0AFA41
:100EC00009FAAAF1010A0AEA020A0AFA0CFA4FF030
:100ED000010B0BFA0CFBABF1010B0BEA030B4AEA1B
:100EE0000B042146404601F037F8BDE8F09F0000B2
:100EF00000BF00F00702064B19684FF6FF031940C8
:100F0000044B0B4343EA0221014B196000BF7047B9
:100F10000CED00E00000FA0570B504460D460CB972
:100F2000012070BD5A48006800F00700A8420ED2A8
:100F30005748006820F007002843554908600846D4
:100F4000006800F00700A84201D00120E9E72078FE
:100F500000F0020002281DD1207800F004000428CF
:100F600005D14C48406840F4E0604A494860207828
:100F700000F00800082805D14648406840F4605059
:100F8000444948604348406820F0F000A1680843A5
:100F900040494860207800F0010078B3606801287B
:100FA00006D13C48006800F4003090B90120B8E751
:100FB0006068022806D13748006800F0007040B928
:100FC0000120AEE73348006800F0020008B90120B4
:100FD000A7E73048406820F00300616808432D49C6
:100FE0004860FFF7E9FE064609E0FFF7E5FE801BD3
:100FF00041F28831884202D9032092E707E0254870
:10100000406800F00C006168B0EB810FEDD1204822
:10101000006800F00700A8420ED91D48006820F0C3
:10102000070028431A4908600846006800F00700D6
:10103000A84201D0012074E7207800F004000428C1
:1010400007D11448406820F4E060E1680843114982
:101050004860207800F00800082808D10D48406852
:1010600020F46050216940EAC1000A49486000F05C
:101070003FF808494968C1F30311074A515CC84069
:101080000649086006480068FFF7BCFE002048E7F4
:101090000020024000100240207D000800000020D7
:1010A0002400002001480068704700000000002074
:1010B00000B5FFF7F7FF04494968C1F30221034A6D
:1010C000515CC84000BD000000100240307D0008A7
:1010D00000B5FFF7E7FF04494968C1F3C221034A9D
:1010E000515CC84000BD000000100240307D000887
:1010F000F0B585B00FF26C0C9CE8E01001A8A0E8F8
:10110000E0101CA52D68009500210022002300247A
:101110000020194D696801F00C05F5B1042D02D0CD
:10112000082D19D101E0154819E001ADC1F383463E
:10113000AC5D01F4803555B10F4D6D68C5F3404588
:101140001DF805200D4D6543B5FBF2F302E00C4D93
:1011500004FB05F3184602E000BF084800BF00BFCB
:1011600005B0F0BD02030405060708090A0B0C0DC3
:101170000E0F1010010200000010024000127A0051
:1011800000093D00F8B504460CB90120F8BD2078EF
:1011900000F00100002878D0F848406800F00C000A
:1011A00004280CD0F548406800F00C00082811D144
:1011B000F248406800F48030B0F5803F0AD1EF4833
:1011C000006800F4003000285FD0606800285CD11F
:1011D0000120DBE700BF6068B0F5803F06D1E7483B
:1011E000006840F48030E549086028E0606858B93C
:1011F000E248006820F48030E04908600846006852
:1012000020F4802008601AE06068B0F5A02F0BD1B0
:10121000DA48006840F48020D84908600846006831
:1012200040F4803008600AE0D448006820F4803040
:10123000D24908600846006820F48020086000BF9A
:10124000606888B1FFF7B8FD054606E0FFF7B4FD1A
:10125000401B642801D9032098E7C848006800F4BF
:1012600000300028F2D010E0FFF7A6FD054606E0AA
:10127000FFF7A2FD401B642801D9032086E7BF4881
:10128000006800F400300028F2D1207800F002005D
:10129000022857D1B948406800F00C0050B1B74857
:1012A000406800F00C00082818D1B448406800F4E9
:1012B000803098B9B148006800F0020020B1206980
:1012C000012801D0012061E7AC48006820F0F80057
:1012D000616940EAC100A949086033E02069E8B1CA
:1012E0000120A7490860FFF767FD054606E0FFF704
:1012F00063FD401B022801D9032047E79F4800688F
:1013000000F002000028F2D09C48006820F0F800AD
:10131000616940EAC1009949086013E000209849DA
:101320000860FFF749FD054606E0FFF745FD401B55
:10133000022801D9032029E79048006800F0020044
:101340000028F2D1207800F0080008282DD1A069EB
:10135000B8B101208B490860FFF72EFD054606E075
:10136000FFF72AFD401B022801D903200EE783481E
:10137000406A00F002000028F2D0012000F08AFC50
:1013800013E000207F490860FFF716FD054606E0E0
:10139000FFF712FD401B022801D90320F6E677482B
:1013A000406A00F002000028F2D1207800F004002A
:1013B000042873D100277148C06900F0805070B9CB
:1013C00000BF6E48C06940F080506C49C861084653
:1013D000C06900F08050009000BF00BF01276A483C
:1013E000006800F48070B0B96748006840F480700D
:1013F00065490860FFF7E0FC054606E0FFF7DCFC06
:10140000401B642801D90320C0E65F48006800F44F
:1014100080700028F2D000BFE068012806D157484C
:10142000006A40F001005549086227E0E06858B9B9
:101430005248006A20F00100504908620846006ADC
:1014400020F00400086219E0E06805280BD14B4841
:10145000006A40F00400494908620846006A40F00A
:10146000010008620AE04548006A20F00100434993
:1014700008620846006A20F00400086200BFE068C5
:10148000A0B1FFF799FC054609E0FFF795FC401B6A
:1014900041F28831884202D9032077E622E03748BA
:1014A000006A00F002000028EFD012E0FFF784FC91
:1014B000054608E0FFF780FC401B41F28831884276
:1014C00001D9032062E62D48006A00F002000028DE
:1014D000F0D1012F05D12948C06920F0805027495B
:1014E000C86100BFE069C8B32448406800F00C0040
:1014F000082860D0E069022848D100202049086609
:10150000FFF75AFC054606E0FFF756FC401B022891
:1015100001D903203AE61948006800F0007000285D
:10152000F2D1206AB0F5803F07D11448406820F41A
:101530000030A168084311494860D4E90801084314
:101540000E49496821F4741108430C494860012090
:101550000B490866FFF730FC054607E03DE0FFF762
:101560002BFC401B022801D903200FE6034800682A
:1015700000F000700028F2D02FE0000000100240C0
:1015800000004242800442420070004000201449A2
:101590000866FFF711FC054606E0FFF70DFC401B4F
:1015A000022801D90320F1E50E48006800F0007020
:1015B0000028F2D111E0E069012800D1E6E50948F0
:1015C000466806F48031206A814204D106F4701125
:1015D000606A814201D00120D8E50020D6E50000F4
:1015E000000042420010024070B504460E46154607
:1015F0001CB1A069B0F5807F01D1012070BD94F8C5
:10160000410028B9002084F84000204600F020F86E
:1016100004F108012068FFF7E5F83146A268206868
:10162000FFF71CF92946236BD4E90102FFF7B8F84C
:10163000A168206850F8210040F00100A2682168EC
:1016400041F82200012084F841000020D6E7000084
:1016500010B586B0044600BF1E48406940F4807053
:101660001C4948610846406900F48070019000BF41
:1016700000BF00BF0846806940F02000886108462E
:10168000806900F02000019000BF00BF00BF084645
:10169000806940F0400088610846806900F04000A1
:1016A000019000BF00BF4CF2037002900220039033
:1016B000012004900320059002A90748FFF7C4F910
:1016C0004FF68070029002A90448FFF7BDF906B0FA
:1016D00010BD00000010024000140140001801403D
:1016E000042808D14FF0E021096941F004014FF0CE
:1016F000E022116107E04FF0E021096921F00401C7
:101700004FF0E0221161704770B504462546681E0F
:10171000B0F1807F01D301200FE0681E4FF0E0217F
:1017200048610F214FF0FF3000F016FC00204FF011
:10173000E021886107200861002070BD7047704774
:10174000704710B5044620680069C0F34000D8B166
:101750002068C068C0F34000B0B16FF0020021689B
:101760000861012020772068806900F0030018B12B
:101770002046FFF7E5FF05E0204600F0ADF82046E3
:1017800000F0ABF80020207720680069C0F38000EB
:10179000D8B12068C068C0F38000B0B16FF0040019
:1017A00021680861022020772068806900F4407079
:1017B00018B12046FFF7C4FF05E0204600F08CF882
:1017C000204600F08AF80020207720680069C0F3E6
:1017D000C000D8B12068C068C0F3C000B0B16FF0DD
:1017E000080021680861042020772068C06900F0A3
:1017F000030018B12046FFF7A3FF05E0204600F0E4
:101800006BF8204600F069F8002020772068006916
:10181000C0F30010D8B12068C068C0F30010B0B1A8
:101820006FF0100021680861082020772068C069E7
:1018300000F4407018B12046FFF782FF05E0204613
:1018400000F04AF8204600F048F800202077206891
:10185000006900F0010058B12068C06800F0010084
:1018600030B16FF0010021680861204600F036F8C1
:1018700020680069C0F3C01058B12068C068C0F388
:10188000C01030B16FF08000216808612046FFF77A
:1018900055FF20680069C0F3801058B12068C06807
:1018A000C0F3801030B16FF040002168086120461D
:1018B00000F024F820680069C0F3401058B1206897
:1018C000C068C0F3401030B16FF02000216808619B
:1018D0002046FFF734FF10BD7047704710B504462F
:1018E0000448844205D100BF20210348FFF754FA81
:1018F00000BF10BD70020020001801407047704703
:101900002DE9F0470446206805682068C66820680D
:1019100047694FF00008C14605F00F08B8F1000F05
:101920000AD105F0200038B106F0200020B1204691
:1019300000F002FABDE8F087B8F1000F71D007F0AF
:10194000010018B906F4907000286AD005F0010073
:1019500030B106F4807018B1E06B40F00100E06334
:1019600005F0040030B107F0010018B1E06B40F061
:101970000200E06305F0020030B107F0010018B189
:10198000E06B40F00400E06305F0080048B106F0A9
:10199000200010B907F0010018B1E06B40F008001A
:1019A000E063E06B68B305F0200028B106F020008A
:1019B00010B1204600F0C0F920684069C0F38019DA
:1019C000E06B00F0080010B9B9F1000F22D02046FA
:1019D00000F092F92068406900F04000B0B1206842
:1019E000406920F0400021684861606B50B11848A0
:1019F000616B4863606BFEF753FF10B1606B416B26
:101A000088470CE02046FFF77AFF08E02046FFF702
:101A100076FF04E02046FFF772FF0020E06389E7CD
:101A2000FFE705F0800030B106F0800018B12046D5
:101A300000F050FA7EE705F0400030B106F04000BB
:101A400018B1204600F068F974E700BF72E70000A3
:101A5000E51C000810B504460CB9012010BDA069B2
:101A600000B100E000BF94F8390028B9002084F8E4
:101A70003800204600F028F8242084F83900206837
:101A8000C06820F400502168C860204600F0A4F926
:101A90002068006920F4904021680861206840694E
:101AA00020F02A00216848612068C06840F4005096
:101AB0002168C8600020E063202084F8390084F8A1
:101AC0003A000020CAE7000010B586B00446284955
:101AD000206888424AD100BF00BF2648806940F094
:101AE0000400244988610846806900F004000190E0
:101AF00000BF00BF00BF00BF00BF0846806940F0C4
:101B0000040088610846806900F00400019000BF6D
:101B100000BF00BF00BF00BF0846806940F480409E
:101B200088610846806900F48040019000BF00BFD2
:101B300000BF48150290022003900120049003206A
:101B4000059002A90C48FEF77FFF4FF480600290D9
:101B50000020039002A90848FEF776FF2520FFF732
:101B600078F9032211462520FFF783F906B010BD4E
:101B700000380140001002400008014010B5034643
:101B800093F83A0020282FD101B10AB9012010BDE5
:101B900000BF93F83800012801D10220F7E70120A7
:101BA00083F8380000BF99629A85DA850020D863EF
:101BB000222083F83A0000BF002083F8380000BFDD
:101BC0001868C06840F480701C68E060186840695C
:101BD00040F001001C6860611868C06840F0200097
:101BE0001C68E0600020D2E70220D0E710B5044670
:101BF0002049206888423BD11F48008800F40040FB
:101C000088BB1D48008800F4804070B11B480078F4
:101C10000A2803D000201849088024E016480088CC
:101C200040F40040144908801DE0144800780D2855
:101C300006D11148008840F480400F49088012E026
:101C40000E4800780C490988C1F30D010C4A505424
:101C500009480088401C0849088008460088C728B1
:101C600001DD00200880012204490648FFF786FFB5
:101C700010BD0000003801401C0000201E000020A4
:101C8000C800002090010020704700BFFEE700BFA1
:101C9000FEE7704708B508490968C9084FF47A7229
:101CA000B1FBF2F14143009100BF00BF00994A1E11
:101CB00000920029F9D108BD0000002010B5FFF7FF
:101CC00081F805F0A7FB012801D005F06DF910BDE2
:101CD0007047000010B50248FFF733FD10BD00004B
:101CE0007002002070B505466C6A0020E085E08433
:101CF0002046FFF704FE70BD0168C96821F49071A9
:101D00000268D1600168496921F0010102685161EE
:101D1000202180F83A10704710B504462068C0684A
:101D200020F040002168C860202084F83900204657
:101D3000FFF7AAFF002010BD70B5044694F83A00E2
:101D4000222847D1A068B0F5805F0CD1206950B936
:101D50000025A66A20684068C0F308003080A06AA9
:101D6000801CA06215E0A56A0026A068B0F5805F1F
:101D700003D0A06828B9206918B920684068287085
:101D800004E02068406800F07F002870A06A401CD2
:101D9000A062E08D401E80B2E085C8B92068C068AE
:101DA00020F020002168C8602068C06820F480709E
:101DB0002168C8602068406920F0010021684861FE
:101DC000202084F83A002046FFF710FF002070BD65
:101DD0000020FCE70220FAE770B504462168096993
:101DE00021F44051E2681143226811612269A1681F
:101DF0001143626941EA02052168C96841F20C6237
:101E0000914329432268D1602168496921F44071D6
:101E1000A2691143226851612D4A2168914202D181
:101E2000FFF756F901E0FFF743F900EBC00101EBC2
:101E3000001162689200B1FBF2F100EBC00202EB0C
:101E4000001263689B00B2FBF3F26423B2FBF3F26F
:101E500002EBC20303EB0212A1EB8201322202EB7E
:101E600001116422B1FBF2F101F0F00100EBC002BC
:101E700002EB001263689B00B2FBF3F26423B2FB37
:101E8000F3F201EB021200EBC00101EB00116368F9
:101E90009B00B1FBF3F100EBC00303EB001366689A
:101EA000B600B3FBF6F36426B3FBF6F303EBC3060D
:101EB00006EB0313A1EB8301322303EB011164232F
:101EC000B1FBF3F101F00F0111442268916070BD84
:101ED00000380140014691F83900212828D188684E
:101EE000B0F5805F0BD1086948B90A6A1088C0F361
:101EF00008000B685860086A801C086205E00B6ADD
:101F0000581C086218780B685860C88C401E80B254
:101F1000C88458B90868C06820F080000B68D86091
:101F20000868C06840F040000B68D8600020704727
:101F30000220FCE710B50248FFF7E2FC10BD0000EC
:101F40009001002000BFFEE702480068C0F30220B5
:101F5000704700000CED00E010B5002804DB0A0714
:101F6000130E054A135406E00A07140E034A00F044
:101F70000F031B1FD45410BD00E400E018ED00E077
:101F800000BF704770B5044600204FF0E0210861A3
:101F9000FFF7A6FBE11704EB5171C1F3CF010C4A27
:101FA0001180E11704EB5171CD104FF47A70454365
:101FB0004FF0E020006940F002004FF0E02108619E
:101FC00008464561006940F00100086170BD0000ED
:101FD0001400002030B50446002504E04FF47A7068
:101FE00000F004F86D1CA542F8D330BD70B503466F
:101FF00000224FF0E02675690D4E368803FB06F48B
:102000004FF0E026B16910E04FF0E026B069884259
:102010000BD0884202D20E1A324402E02E1A0E442D
:1020200032440146A24200D300E0EDE700BF70BD9C
:102030001400002000BF054A126802F04002002A86
:10204000F9D0C2B2014B1B1D1A6070470038014025
:102050001CB507480068012100238022CDE900104B
:1020600004A1074805F0A6F904F032FE1CBD0000EB
:102070000400002073746172745F7461736B0000FC
:10208000AD64000800B585B000BF00BF3648806968
:1020900040F04000344988610846806900F0400003
:1020A000009000BF00BF00BF00BF00BF08468069AE
:1020B00040F0400088610846806900F040000090D0
:1020C00000BF00BF00BF00BF00BF0846806940F0EE
:1020D000400088610846806900F04000009000BF21
:1020E00000BF00BF00BF00BF0846806940F0040089
:1020F00088610846806900F00400009000BF00BFBE
:1021000000BF1020019000200290012003900320C6
:10211000049001A91548FEF797FC082001900020C3
:102120000290012003900320049001A90F48FEF7BC
:102130008BFC0420019000200290012003900320DA
:10214000049001A90948FEF77FFC012001900020BE
:102150000290022003900320049001A90448FEF796
:1021600073FC05B000BD00000010024000180140E3
:102170000008014070B50446002514B101202B4928
:1021800008702A480078002834D010212848FEF72B
:10219000FBFD78B108212648FEF7F6FD50B1042179
:1021A0002348FEF7F1FD28B101212248FEF7ECFD9E
:1021B00001281FD10A20FFF70DFF00201B490870DE
:1021C00010211B48FEF7E0FD00B901250821184841
:1021D000FEF7DAFD00B9022504211548FEF7D4FD0B
:1021E00000B9032501211348FEF7CEFD01281BD1BC
:1021F000042519E010210E48FEF7C6FD012813D171
:1022000008210B48FEF7C0FD01280DD10421084824
:10221000FEF7BAFD012807D101210648FEF7B4FDFB
:1022200010B9012001490870284670BD290000201E
:10223000001801400008014070B504460026094816
:102240000588408845430021084603F045F803F01F
:1022500015F900BF02E004480480761CAE42FAD3B0
:1022600070BD0000180200200008006C10B5044684
:1022700058488471002C58D1F020564908804FF4FA
:10228000A07048800846808845F21051884210D1DD
:102290004FF430504F4908814FF4285048814FF493
:1022A0002C5088814FF4F07008804FF448704880BB
:1022B0001AE04848808841F6631188420DD12C20ED
:1022C000444908812B2048812A2088814FF4F070EE
:1022D00008804FF44870488006E02C203D49088172
:1022E0002A2048812B2088813A48808845F2103185
:1022F000884205D03748808847F29671884206D1D7
:102300004FF4A070334908804FF4F0704880314892
:10231000808849F60601884258D14FF4F0702D4963
:1023200008804FF44870488050E04FF4A07029496D
:102330000880F02048800846808845F21051884285
:1023400010D14FF43050234908814FF42850488170
:102350004FF42C5088814FF4487008804FF4F0708F
:10236000488020E01B48808841F66311884205D0F0
:102370001848808849F6060188420DD12C2015495D
:1023800008812A2048812B2088814FF448700880DA
:102390004FF4F070488006E02C200E4908812A2076
:1023A00048812B2088810B48808845F21031884273
:1023B00005D00848808847F29671884206D14FF4CC
:1023C000F070044908804FF4A0704880002002F0AB
:1023D00065FE10BD1802002010B5CF2003F042F8B2
:1023E000002003F033F8C12003F030F8302003F070
:1023F0002DF8ED2003F036F8642003F027F80320D1
:1024000003F024F8122003F021F8812003F01EF8D5
:10241000E82003F027F8852003F018F8102003F0D7
:1024200015F87A2003F012F8CB2003F01BF83920BE
:1024300003F00CF82C2003F009F8002003F006F854
:10244000342003F003F8022003F000F8F72003F033
:1024500009F8202002F0FAFFEA2003F003F8002038
:1024600002F0F4FF002002F0F1FFC02002F0FAFFBA
:102470001B2002F0EBFFC12002F0F4FF012002F06C
:10248000E5FFC52002F0EEFF302002F0DFFF302034
:1024900002F0DCFFC72002F0E5FFB72002F0D6FF14
:1024A000362002F0DFFF482002F0D0FF3A2002F091
:1024B000D9FF552002F0CAFFB12002F0D3FF00205F
:1024C00002F0C4FF1A2002F0C1FFB62002F0CAFFDA
:1024D0000A2002F0BBFFA22002F0B8FFF22002F0B7
:1024E000C1FF002002F0B2FF262002F0BBFF012056
:1024F00002F0ACFFE02002F0B5FF0F2002F0A6FFD3
:102500002A2002F0A3FF282002F0A0FF082002F0FA
:102510009DFF0E2002F09AFF082002F097FF542042
:1025200002F094FFA92002F091FF432002F08EFFF9
:102530000A2002F08BFF0F2002F088FF002002F03B
:1025400085FF002002F082FF002002F07FFF0020C4
:1025500002F07CFFE12002F085FF002002F076FF10
:10256000152002F073FF172002F070FF072002F021
:102570006DFF112002F06AFF062002F067FF2B209A
:1025800002F064FF562002F061FF3C2002F05EFF83
:10259000052002F05BFF102002F058FF0F2002F030
:1025A00055FF3F2002F052FF3F2002F04FFF0F2067
:1025B00002F04CFF2B2002F055FF002002F046FFF6
:1025C000002002F043FF012002F040FF3F2002F014
:1025D0003DFF2A2002F046FF002002F037FF0020D6
:1025E00002F034FF002002F031FFEF2002F02EFF56
:1025F000112002F037FF7820FFF7ECFC292002F0D1
:1026000031FF10BD10B5FF2002F02CFFFF2002F0BB
:102610001DFF982002F01AFF062002F017FFBC20D1
:1026200002F020FF012002F011FF0F2002F00EFF48
:10263000612002F00BFFFF2002F008FF012002F0F2
:1026400005FF012002F002FF0B2002F0FFFE102028
:1026500002F0FCFE372002F0F9FE632002F0F6FEE5
:10266000FF2002F0F3FEFF2002F0F0FE012002F056
:10267000EDFE012002F0EAFE002002F0E7FE00205D
:1026800002F0E4FEFF2002F0E1FE522002F0DEFE46
:10269000012002F0DBFE002002F0D8FE402002F014
:1026A000D5FEBD2002F0DEFE012002F0CFFE232089
:1026B00002F0CCFE452002F0C9FE672002F0C6FE03
:1026C000012002F0C3FE232002F0C0FE452002F0EC
:1026D000BDFE672002F0BAFEBE2002F0C3FE00205D
:1026E00002F0B4FE012002F0B1FEAB2002F0AEFE1B
:1026F000602002F0ABFE222002F0A8FE222002F0B1
:10270000A5FE222002F0A2FE222002F09FFE22203F
:1027100002F09CFEC72002F0A5FE362002F096FED5
:10272000ED2002F09FFE7F2002F090FE0F2002F0CD
:102730008DFEC02002F096FE0F2002F087FE0B20D7
:1027400002F084FE0A2002F081FEFC2002F08AFEE4
:10275000082002F07BFEDF2002F084FE002002F061
:1027600075FE002002F072FE002002F06FFE0020D5
:1027700002F06CFE002002F069FE202002F066FEEE
:10278000F32002F06FFE742002F060FEB42002F02D
:1027900069FE002002F05AFE002002F057FE0020E1
:1027A00002F054FEF72002F05DFE822002F04EFEA1
:1027B000B12002F057FE002002F048FE132002F084
:1027C00045FE132002F042FEF22002F04BFE802074
:1027D00002F03CFE042002F039FE402002F036FEFA
:1027E000282002F033FEC12002F03CFE172002F048
:1027F0002DFE882002F02AFE882002F027FE2020ED
:1028000002F024FEE02002F02DFE002002F01EFE69
:102810000A2002F01BFE122002F018FE102002F027
:1028200015FE0E2002F012FE202002F00FFECC203A
:1028300002F00CFE072002F009FE062002F006FE60
:102840000B2002F003FE0E2002F000FE0F2002F02B
:10285000FDFD0D2002F0FAFD152002F0F7FD10201D
:1028600002F0F4FD002002F0F1FDE12002F0FAFD9B
:10287000002002F0EBFD0B2002F0E8FD132002F037
:10288000E5FD0D2002F0E2FD0E2002F0DFFD1B2031
:1028900002F0DCFD712002F0D9FD062002F0D6FD29
:1028A000062002F0D3FD0A2002F0D0FD0F2002F036
:1028B000CDFD0E2002F0CAFD0F2002F0C7FD15204D
:1028C00002F0C4FD0C2002F0C1FD002002F0BEFDAC
:1028D0002A2002F0C7FD002002F0B8FD002002F01F
:1028E000B5FD012002F0B2FDDF2002F0AFFD2B208C
:1028F00002F0B8FD002002F0A9FD002002F0A6FDC4
:10290000032002F0A3FD1F2002F0A0FD3A2002F0F8
:10291000A9FD552002F09AFD362002F0A3FD00200B
:1029200002F094FD112002F09DFD7820FFF752FB8C
:10293000292002F097FD1420FFF74CFB2C2002F019
:1029400091FD10BD10B5ED2002F08CFD012002F0CC
:102950007DFDFE2002F07AFDEE2002F083FDDE20F8
:1029600002F074FD212002F071FDF12002F07AFDE9
:10297000012002F06BFDDF2002F074FD102002F058
:1029800065FDC42002F06EFD8F2002F05FFDC620C1
:1029900002F068FD002002F059FDE22002F056FD31
:1029A000E22002F053FDE22002F050FDBF2002F0D1
:1029B00059FDAA2002F04AFDB02002F053FD0D207F
:1029C00002F044FD002002F041FD0D2002F03EFD2A
:1029D000002002F03BFD112002F038FD002002F043
:1029E00035FD192002F032FD002002F02FFD2120DC
:1029F00002F02CFD002002F029FD2D2002F026FD22
:102A0000002002F023FD3D2002F020FD002002F016
:102A10001DFD5D2002F01AFD002002F017FD5D2073
:102A200002F014FD002002F011FDB12002F01AFDA9
:102A3000802002F00BFD002002F008FD8B2002F048
:102A400005FD002002F002FD962002F0FFFC0020B0
:102A500002F0FCFCB22002F005FD002002F0F6FCC2
:102A6000002002F0F3FC022002F0F0FC002002F053
:102A7000EDFC032002F0EAFC002002F0E7FCB320AA
:102A800002F0F0FC002002F0E1FC002002F0DEFC8D
:102A9000002002F0DBFC002002F0D8FC002002F055
:102AA000D5FC002002F0D2FC002002F0CFFC002078
:102AB00002F0CCFC002002F0C9FC002002F0C6FCB1
:102AC000002002F0C3FC002002F0C0FC002002F055
:102AD000BDFC002002F0BAFC002002F0B7FC002090
:102AE00002F0B4FC002002F0B1FC002002F0AEFCC9
:102AF000002002F0ABFC002002F0A8FC002002F055
:102B0000A5FC002002F0A2FC002002F09FFC0020A7
:102B100002F09CFCB42002F0A5FC8B2002F096FC95
:102B2000002002F093FC962002F090FC002002F0BE
:102B30008DFCA12002F08AFC002002F087FCB52069
:102B400002F090FC022002F081FC002002F07EFCEA
:102B5000032002F07BFC002002F078FC042002F04D
:102B600075FC002002F072FCB62002F07BFC002015
:102B700002F06CFC002002F069FCB72002F072FC4D
:102B8000002002F063FC002002F060FC3F2002F015
:102B90005DFC002002F05AFC5E2002F057FC002091
:102BA00002F054FC642002F051FC002002F04EFCC4
:102BB0008C2002F04BFC002002F048FCAC2002F01C
:102BC00045FC002002F042FCDC2002F03FFC00202B
:102BD00002F03CFC702002F039FC002002F036FCD0
:102BE000902002F033FC002002F030FCEB2002F0D9
:102BF0002DFC002002F02AFCDC2002F027FC002043
:102C000002F024FCB82002F02DFC002002F01EFC93
:102C1000002002F01BFC002002F018FC002002F053
:102C200015FC002002F012FC002002F00FFC002036
:102C300002F00CFC002002F009FCBA2002F012FCA9
:102C4000242002F003FC002002F000FC002002F02F
:102C5000FDFB002002F0FAFBC12002F003FC202063
:102C600002F0F4FB002002F0F1FB542002F0EEFB36
:102C7000002002F0EBFBFF2002F0E8FB002002F056
:102C8000E5FBC22002F0EEFB0A2002F0DFFB002091
:102C900002F0DCFB042002F0D9FB002002F0D6FB9E
:102CA000C32002F0DFFB3C2002F0D0FB002002F04A
:102CB000CDFB3A2002F0CAFB002002F0C7FB39200E
:102CC00002F0C4FB002002F0C1FB372002F0BEFB83
:102CD000002002F0BBFB3C2002F0B8FB002002F019
:102CE000B5FB362002F0B2FB002002F0AFFB322031
:102CF00002F0ACFB002002F0A9FB2F2002F0A6FBA3
:102D0000002002F0A3FB2C2002F0A0FB002002F028
:102D10009DFB292002F09AFB002002F097FB262061
:102D200002F094FB002002F091FB242002F08EFBC5
:102D3000002002F08BFB242002F088FB002002F030
:102D400085FB232002F082FB002002F07FFB3C2069
:102D500002F07CFB002002F079FB362002F076FBCB
:102D6000002002F073FB322002F070FB002002F022
:102D70006DFB2F2002F06AFB002002F067FB2C2085
:102D800002F064FB002002F061FB292002F05EFBF0
:102D9000002002F05BFB262002F058FB002002F02E
:102DA00055FB242002F052FB002002F04FFB2420B0
:102DB00002F04CFB002002F049FB232002F046FB0E
:102DC000002002F043FBC42002F04CFB622002F022
:102DD0003DFB002002F03AFB052002F037FB00200B
:102DE00002F034FB842002F031FB002002F02EFBC5
:102DF000F02002F02BFB002002F028FB182002F04C
:102E000025FB002002F022FBA42002F01FFB002083
:102E100002F01CFB182002F019FB002002F016FB48
:102E2000502002F013FB002002F010FB0C2002F0F7
:102E30000DFB002002F00AFB172002F007FB002028
:102E400002F004FB952002F001FB002002F0FEFAE4
:102E5000F32002F0FBFA002002F0F8FAE62002F07C
:102E6000F5FA002002F0F2FAC52002F0FBFA322057
:102E700002F0ECFA002002F0E9FA442002F0E6FA4F
:102E8000002002F0E3FA652002F0E0FA002002F0F0
:102E9000DDFA762002F0DAFA002002F0D7FA882074
:102EA00002F0D4FA002002F0D1FAC62002F0DAFAD9
:102EB000202002F0CBFA002002F0C8FA172002F01E
:102EC000C5FA002002F0C2FA012002F0BFFA002089
:102ED00002F0BCFAC72002F0C5FA002002F0B6FAF0
:102EE000002002F0B3FA002002F0B0FA002002F055
:102EF000ADFAC82002F0B6FA002002F0A7FA0020CE
:102F000002F0A4FA002002F0A1FA002002F09EFADA
:102F1000C92002F0A7FA002002F098FA002002F07F
:102F200095FA002002F092FA002002F08FFA0020B9
:102F300002F08CFA002002F089FA002002F086FAF2
:102F4000002002F083FA002002F080FA002002F054
:102F50007DFA002002F07AFA002002F077FA0020D1
:102F600002F074FA002002F071FA002002F06EFA0A
:102F7000002002F06BFAE02002F074FA162002F052
:102F800065FA002002F062FA1C2002F05FFA0020CD
:102F900002F05CFA212002F059FA002002F056FA01
:102FA000362002F053FA002002F050FA462002F0D8
:102FB0004DFA002002F04AFA522002F047FA0020AF
:102FC00002F044FA642002F041FA002002F03EFAD6
:102FD0007A2002F03BFA002002F038FA8B2002F04F
:102FE00035FA002002F032FA992002F02FFA002080
:102FF00002F02CFAA82002F029FA002002F026FAAA
:10300000B92002F023FA002002F020FAC42002F0D6
:103010001DFA002002F01AFACA2002F017FA002066
:1030200002F014FAD22002F011FA002002F00EFA97
:10303000D92002F00BFA002002F008FAE02002F09A
:1030400005FA002002F002FAF32002F0FFF9002056
:1030500002F0FCF9E12002F005FA162002F0F6F980
:10306000002002F0F3F91C2002F0F0F9002002F039
:10307000EDF9222002F0EAF9002002F0E7F936200B
:1030800002F0E4F9002002F0E1F9452002F0DEF957
:10309000002002F0DBF9522002F0D8F9002002F003
:1030A000D5F9642002F0D2F9002002F0CFF97A209D
:1030B00002F0CCF9002002F0C9F98B2002F0C6F929
:1030C000002002F0C3F9992002F0C0F9002002F0BC
:1030D000BDF9A82002F0BAF9002002F0B7F9B92032
:1030E00002F0B4F9002002F0B1F9C42002F0AEF908
:1030F000002002F0ABF9CA2002F0A8F9002002F08B
:10310000A5F9D22002F0A2F9002002F09FF9D82000
:1031100002F09CF9002002F099F9E02002F096F903
:10312000002002F093F9F32002F090F9002002F061
:103130008DF9E22002F096F9052002F087F90020CF
:1031400002F084F90B2002F081F9002002F07EF9F0
:103150001B2002F07BF9002002F078F9342002F005
:1031600075F9002002F072F9442002F06FF9002096
:1031700002F06CF94F2002F069F9002002F066F9C4
:10318000612002F063F9002002F060F9792002F07A
:103190005DF9002002F05AF9882002F057F900206A
:1031A00002F054F9972002F051F9002002F04EF994
:1031B000A62002F04BF9002002F048F9B72002F0F7
:1031C00045F9002002F042F9C22002F03FF9002048
:1031D00002F03CF9C72002F039F9002002F036F97C
:1031E000D12002F033F9002002F030F9D62002F0AD
:1031F0002DF9002002F02AF9DD2002F027F9002045
:1032000002F024F9F32002F021F9002002F01EF967
:10321000E32002F027F9052002F018F9002002F05F
:1032200015F90A2002F012F9002002F00FF91C2013
:1032300002F00CF9002002F009F9332002F006F93F
:10324000002002F003F9442002F000F9002002F00F
:10325000FDF8502002F0FAF8002002F0F7F86220A2
:1032600002F0F4F8002002F0F1F8782002F0EEF815
:10327000002002F0EBF8882002F0E8F8002002F0CD
:10328000E5F8972002F0E2F8002002F0DFF8A6202F
:1032900002F0DCF8002002F0D9F8B72002F0D6F8EE
:1032A000002002F0D3F8C22002F0D0F8002002F093
:1032B000CDF8C72002F0CAF8002002F0C7F8D120EC
:1032C00002F0C4F8002002F0C1F8D52002F0BEF8E8
:1032D000002002F0BBF8DD2002F0B8F8002002F078
:1032E000B5F8F32002F0B2F8002002F0AFF8E420C5
:1032F00002F0B8F8012002F0A9F8002002F0A6F8C8
:10330000012002F0A3F8002002F0A0F8022002F051
:103310009DF8002002F09AF82A2002F097F8002089
:1033200002F094F83C2002F091F8002002F08EF8B0
:103330004B2002F08BF8002002F088F85D2002F0AC
:1033400085F8002002F082F8742002F07FF8002057
:1033500002F07CF8842002F079F8002002F076F880
:10336000932002F073F8002002F070F8A22002F01F
:103370006DF8002002F06AF8B32002F067F8002030
:1033800002F064F8BE2002F061F8002002F05EF85E
:10339000C42002F05BF8002002F058F8CD2002F0C3
:1033A00055F8002002F052F8D32002F04FF8002028
:1033B00002F04CF8DD2002F049F8002002F046F857
:1033C000F32002F043F8002002F040F8E52002F07C
:1033D00049F8002002F03AF8002002F037F8002007
:1033E00002F034F8002002F031F8022002F02EF84A
:1033F000002002F02BF8292002F028F8002002F02B
:1034000025F83C2002F022F8002002F01FF84B20A3
:1034100002F01CF8002002F019F85D2002F016F806
:10342000002002F013F8742002F010F8002002F0DF
:103430000DF8842002F00AF8002002F007F893202B
:1034400002F004F8002002F001F8A22001F0FEFFD3
:10345000002001F0FBFFB32001F0F8FF002001F095
:10346000F5FFBE2001F0F2FF002001F0EFFFC420C5
:1034700001F0ECFF002001F0E9FFCD2001F0E6FFB4
:10348000002001F0E3FFD32001F0E0FF002001F075
:10349000DDFFDC2001F0DAFF002001F0D7FFF32090
:1034A00001F0D4FF002001F0D1FFE62001F0DAFFA7
:1034B000112001F0CBFF002001F0C8FF342001F003
:1034C000C5FF002001F0C2FF562001F0BFFF002021
:1034D00001F0BCFF762001F0B9FF002001F0B6FF3B
:1034E000772001F0B3FF002001F0B0FF662001F06B
:1034F000ADFF002001F0AAFF882001F0A7FF002007
:1035000001F0A4FF992001F0A1FF002001F09EFF2F
:10351000BB2001F09BFF002001F098FF992001F0F3
:1035200095FF002001F092FF662001F08FFF002040
:1035300001F08CFF552001F089FF002001F086FF8B
:10354000552001F083FF002001F080FF452001F0AD
:103550007DFF002001F07AFF432001F077FF00207B
:1035600001F074FF442001F071FF002001F06EFFB4
:10357000E72001F077FF322001F068FF002001F022
:1035800065FF552001F062FF002001F05FFF76200B
:1035900001F05CFF002001F059FF662001F056FFAA
:1035A000002001F053FF672001F050FF002001F0E0
:1035B0004DFF672001F04AFF002001F047FF872000
:1035C00001F044FF002001F041FF992001F03EFF8F
:1035D000002001F03BFFBB2001F038FF002001F08C
:1035E00035FF992001F032FF002001F02FFF7720F6
:1035F00001F02CFF002001F029FF442001F026FFFC
:10360000002001F023FF562001F020FF002001F0F0
:103610001DFF232001F01AFF002001F017FF3320C7
:1036200001F014FF002001F011FF452001F00EFF12
:10363000002001F00BFFE82001F014FF002001F052
:1036400005FF002001F002FF992001F0FFFE00209D
:1036500001F0FCFE872001F0F9FE002001F0F6FEEB
:10366000882001F0F3FE002001F0F0FE772001F049
:10367000EDFE002001F0EAFE662001F0E7FE0020EA
:1036800001F0E4FE882001F0E1FE002001F0DEFE02
:10369000AA2001F0DBFE002001F0D8FEBB2001F0E3
:1036A000D5FE002001F0D2FE992001F0CFFE0020CF
:1036B00001F0CCFE662001F0C9FE002001F0C6FE3C
:1036C000552001F0C3FE002001F0C0FE552001F09E
:1036D000BDFE002001F0BAFE442001F0B7FE00203C
:1036E00001F0B4FE442001F0B1FE002001F0AEFE76
:1036F000552001F0ABFE002001F0A8FEE92001F00A
:10370000B1FEAA2001F0A2FE002001F09FFE0020E1
:1037100001F09CFE002001F099FE002001F0A2FEC5
:10372000AA2001F093FECF2001F09CFE002001F0C2
:103730008DFE002001F08AFE002001F087FE0020AF
:1037400001F084FE002001F081FE002001F07EFEE9
:10375000002001F07BFE002001F078FE002001F047
:1037600075FE002001F072FE002001F06FFE0020C7
:1037700001F06CFE002001F069FE002001F066FE01
:10378000002001F063FE002001F060FE002001F047
:103790005DFEF02001F066FE002001F057FE502093
:1037A00001F054FE002001F051FE002001F04EFE19
:1037B000002001F04BFEF32001F054FE002001F048
:1037C00045FEF92001F04EFE062001F03FFE1020DC
:1037D00001F03CFE292001F039FE002001F036FE08
:1037E0003A2001F03FFE552001F030FE112001F09B
:1037F00039FE6420FEF7EEFB292001F033FE352070
:1038000001F030FE002001F021FE512001F02AFEDF
:10381000FF2001F01BFE532001F024FE2C2001F0BC
:1038200015FE552001F01EFE822001F00FFE2C2017
:1038300001F018FE10BD10B555214FF4704001F095
:1038400027FEAA214FF2010001F022FE52214FF281
:10385000020001F01DFE08214FF2030001F018FEE6
:1038600001214FF2040001F013FE0D214FF430400E
:1038700001F00EFE0D214BF2010001F009FE0D21B9
:103880004BF2020001F004FE34214FF4364001F007
:10389000FFFD34214BF2016001F0FAFD34214BF2BF
:1038A000026001F0F5FD0D214FF4314001F0F0FD13
:1038B0000D214BF2011001F0EBFD0D214BF2021036
:1038C00001F0E6FD34214FF4374001F0E1FD3421F1
:1038D0004BF2017001F0DCFD34214BF2027001F07B
:1038E000D7FD00214FF4324001F0D2FD00214BF210
:1038F000012001F0CDFD00214BF2022001F0C8FDB6
:1039000024214FF4384001F0C3FD24214BF601007F
:1039100001F0BEFD24214BF6020001F0B9FD0121AA
:103920004FF43F4001F0B4FD0F214FF4334001F05C
:10393000AFFD0F214BF2013001F0AAFD0F214BF238
:10394000023001F0A5FD34214FF4394001F0A0FD13
:1039500034214BF6011001F09BFD34214BF602108F
:1039600001F096FD08214FF4354001F091FD08214A
:103970004BF2015001F08CFD08214BF2025001F096
:1039800087FD03214FF4424001F082FD24214FF4D2
:103990003A4001F07DFD24214BF6012001F078FD35
:1039A00024214BF6022001F073FD00214FF43C402E
:1039B00001F06EFD78214BF6014001F069FD002118
:1039C0004BF6024001F064FD00214FF43D4001F050
:1039D0005FFD78214BF6015001F05AFD00214BF6B6
:1039E000025001F055FD00214FF43E4001F050FD22
:1039F00064214BF6016001F04BFD00214FF4514072
:103A000001F046FD33214DF2011001F041FD00218E
:103A10004DF2021001F03CFD34214DF2031001F093
:103A200037FD00214DF2041001F032FD3A214DF234
:103A3000051001F02DFD00214DF2061001F028FDCA
:103A40004A214DF2071001F023FD00214DF208102C
:103A500001F01EFD5C214DF2091001F019FD00215D
:103A60004DF20A1001F014FD81214DF20B1001F00E
:103A70000FFD00214DF20C1001F00AFDA6214DF2C0
:103A80000D1001F005FD00214DF20E1001F000FDBA
:103A9000E5214DF20F1001F0FBFC01214DF2101059
:103AA00001F0F6FC13214DF2111001F0F1FC01219F
:103AB0004DF2121001F0ECFC54214DF2131001F004
:103AC000E7FC01214DF2141001F0E2FC82214DF2DD
:103AD000151001F0DDFC01214DF2161001F0D8FCAB
:103AE000CA214DF2171001F0D3FC02214DF218103B
:103AF00001F0CEFC00214DF2191001F0C9FC0221A9
:103B00004DF21A1001F0C4FC01214DF21B1001F01E
:103B1000BFFC02214DF21C1001F0BAFC34214DF221
:103B20001D1001F0B5FC02214DF21E1001F0B0FC99
:103B300067214DF21F1001F0ABFC02214DF2201065
:103B400001F0A6FC84214DF2211001F0A1FC02211C
:103B50004DF2221001F09CFCA4214DF2231001F043
:103B600097FC02214DF2241001F092FCB7214DF296
:103B7000251001F08DFC02214DF2261001F088FC89
:103B8000CF214DF2271001F083FC02214DF22810C5
:103B900001F07EFCDE214DF2291001F079FC0221BA
:103BA0004DF22A1001F074FCF2214DF22B1001F0BD
:103BB0006FFC02214DF22C1001F06AFCFE214DF247
:103BC0002D1001F065FC03214DF22E1001F060FC78
:103BD00010214DF22F1001F05BFC03214DF230104B
:103BE00001F056FC33214DF2311001F051FC03215C
:103BF0004DF2321001F04CFC6D214DF2331001F00A
:103C000047FC00214FF4524001F042FC33214DF2B9
:103C1000012001F03DFC00214DF2022001F038FCB2
:103C200034214DF2032001F033FC00214DF2042039
:103C300001F02EFC3A214DF2052001F029FC002173
:103C40004DF2062001F024FC4A214DF2072001F03C
:103C50001FFC00214DF2082001F01AFC5C214DF2FE
:103C6000092001F015FC00214DF20A2001F010FCA2
:103C700081214DF20B2001F00BFC00214DF20C20B4
:103C800001F006FCA6214DF20D2001F001FC0021FF
:103C90004DF20E2001F0FCFBE5214DF20F2001F06A
:103CA000F7FB01214DF2102001F0F2FB13214DF240
:103CB000112001F0EDFB01214DF2122001F0E8FB93
:103CC00054214DF2132001F0E3FB01214DF21420A9
:103CD00001F0DEFB82214DF2152001F0D9FB01211C
:103CE0004DF2162001F0D4FBCA214DF2172001F04D
:103CF000CFFB02214DF2182001F0CAFB00214DF24A
:103D0000192001F0C5FB02214DF21A2001F0C0FB81
:103D100001214DF21B2001F0BBFB02214DF21C20C2
:103D200001F0B6FB34214DF21D2001F0B1FB022160
:103D30004DF21E2001F0ACFB67214DF21F2001F077
:103D4000A7FB02214DF2202001F0A2FB84214DF2BD
:103D5000212001F09DFB02214DF2222001F098FB71
:103D6000A4214DF2232001F093FB02214DF22420E7
:103D700001F08EFBB7214DF2252001F089FB0221D5
:103D80004DF2262001F084FBCF214DF2272001F0D7
:103D90007FFB02214DF2282001F07AFBDE214DF25B
:103DA000292001F075FB02214DF22A2001F070FB61
:103DB000F2214DF22B2001F06BFB02214DF22C2061
:103DC00001F066FBFE214DF22D2001F061FB032185
:103DD0004DF22E2001F05CFB10214DF22F2001F05E
:103DE00057FB03214DF2302001F052FB33214DF2FD
:103DF000312001F04DFB03214DF2322001F048FB50
:103E00006D214DF2332001F043FB00214FF453406C
:103E100001F03EFB33214DF2013001F039FB00216E
:103E20004DF2023001F034FB34214DF2033001F049
:103E30002FFB00214DF2043001F02AFB3A214DF214
:103E4000053001F025FB00214DF2063001F020FB8A
:103E50004A214DF2073001F01BFB00214DF20830E2
:103E600001F016FB5C214DF2093001F011FB00213D
:103E70004DF20A3001F00CFB81214DF20B3001F0C4
:103E800007FB00214DF20C3001F002FBA6214DF2A0
:103E90000D3001F0FDFA00214DF20E3001F0F8FA7C
:103EA000E5214DF20F3001F0F3FA01214DF210300F
:103EB00001F0EEFA13214DF2113001F0E9FA01217F
:103EC0004DF2123001F0E4FA54214DF2133001F0BA
:103ED000DFFA01214DF2143001F0DAFA82214DF2BD
:103EE000153001F0D5FA01214DF2163001F0D0FA6B
:103EF000CA214DF2173001F0CBFA02214DF21830F1
:103F000001F0C6FA00214DF2193001F0C1FA022188
:103F10004DF21A3001F0BCFA01214DF21B3001F0D4
:103F2000B7FA02214DF21C3001F0B2FA34214DF201
:103F30001D3001F0ADFA02214DF21E3001F0A8FA59
:103F400067214DF21F3001F0A3FA02214DF220301B
:103F500001F09EFA84214DF2213001F099FA0221FC
:103F60004DF2223001F094FAA4214DF2233001F0F9
:103F70008FFA02214DF2243001F08AFAB7214DF276
:103F8000253001F085FA02214DF2263001F080FA49
:103F9000CF214DF2273001F07BFA02214DF228307B
:103FA00001F076FADE214DF2293001F071FA02219A
:103FB0004DF22A3001F06CFAF2214DF22B3001F073
:103FC00067FA02214DF22C3001F062FAFE214DF227
:103FD0002D3001F05DFA03214DF22E3001F058FA38
:103FE00010214DF22F3001F053FA03214DF2303001
:103FF00001F04EFA33214DF2313001F049FA03213C
:104000004DF2323001F044FA6D214DF2333001F0BF
:104010003FFA00214FF4544001F03AFA33214DF2B7
:10402000014001F035FA00214DF2024001F030FA72
:1040300034214DF2034001F02BFA00214DF20440EF
:1040400001F026FA3A214DF2054001F021FA002153
:104050004DF2064001F01CFA4A214DF2074001F0F2
:1040600017FA00214DF2084001F012FA5C214DF2DE
:10407000094001F00DFA00214DF20A4001F008FA62
:1040800081214DF20B4001F003FA00214DF20C406A
:1040900001F0FEF9A6214DF20D4001F0F9F90021E1
:1040A0004DF20E4001F0F4F9E5214DF20F4001F020
:1040B000EFF901214DF2104001F0EAF913214DF220
:1040C000114001F0E5F901214DF2124001F0E0F953
:1040D00054214DF2134001F0DBF901214DF214405F
:1040E00001F0D6F982214DF2154001F0D1F90121FC
:1040F0004DF2164001F0CCF9CA214DF2174001F003
:10410000C7F902214DF2184001F0C2F900214DF229
:10411000194001F0BDF902214DF21A4001F0B8F941
:1041200001214DF21B4001F0B3F902214DF21C4078
:1041300001F0AEF934214DF21D4001F0A9F9022140
:104140004DF21E4001F0A4F967214DF21F4001F02D
:104150009FF902214DF2204001F09AF984214DF29D
:10416000214001F095F902214DF2224001F090F931
:10417000A4214DF2234001F08BF902214DF224409D
:1041800001F086F9B7214DF2254001F081F90221B5
:104190004DF2264001F07CF9CF214DF2274001F08D
:1041A00077F902214DF2284001F072F9DE214DF23B
:1041B000294001F06DF902214DF22A4001F068F921
:1041C000F2214DF22B4001F063F902214DF22C4017
:1041D00001F05EF9FE214DF22D4001F059F9032165
:1041E0004DF22E4001F054F910214DF22F4001F014
:1041F0004FF903214DF2304001F04AF933214DF2DD
:10420000314001F045F903214DF2324001F040F90F
:104210006D214DF2334001F03BF900214FF4554040
:1042200001F036F933214DF2015001F031F900214E
:104230004DF2025001F02CF934214DF2035001F0FF
:1042400027F900214DF2045001F022F93A214DF2F4
:10425000055001F01DF900214DF2065001F018F94A
:104260004A214DF2075001F013F900214DF2085098
:1042700001F00EF95C214DF2095001F009F900211D
:104280004DF20A5001F004F981214DF20B5001F07A
:10429000FFF800214DF20C5001F0FAF8A6214DF282
:1042A0000D5001F0F5F800214DF20E5001F0F0F83C
:1042B000E5214DF20F5001F0EBF801214DF21050C5
:1042C00001F0E6F813214DF2115001F0E1F801215F
:1042D0004DF2125001F0DCF854214DF2135001F070
:1042E000D7F801214DF2145001F0D2F882214DF29D
:1042F000155001F0CDF801214DF2165001F0C8F82B
:10430000CA214DF2175001F0C3F802214DF21850A6
:1043100001F0BEF800214DF2195001F0B9F8022168
:104320004DF21A5001F0B4F801214DF21B5001F08A
:10433000AFF802214DF21C5001F0AAF834214DF2E1
:104340001D5001F0A5F802214DF21E5001F0A0F819
:1043500067214DF21F5001F09BF802214DF22050D1
:1043600001F096F884214DF2215001F091F80221DC
:104370004DF2225001F08CF8A4214DF2235001F0AF
:1043800087F802214DF2245001F082F8B7214DF256
:10439000255001F07DF802214DF2265001F078F809
:1043A000CF214DF2275001F073F802214DF2285031
:1043B00001F06EF8DE214DF2295001F069F802217A
:1043C0004DF22A5001F064F8F2214DF22B5001F029
:1043D0005FF802214DF22C5001F05AF8FE214DF207
:1043E0002D5001F055F803214DF22E5001F050F8F8
:1043F00010214DF22F5001F04BF803214DF23050B7
:1044000001F046F833214DF2315001F041F803211B
:104410004DF2325001F03CF86D214DF2335001F075
:1044200037F800214FF4564001F032F833214DF2B5
:10443000016001F02DF800214DF2026001F028F832
:1044400034214DF2036001F023F800214DF20460A5
:1044500001F01EF83A214DF2056001F019F8002133
:104460004DF2066001F014F84A214DF2076001F0A8
:104470000FF800214DF2086001F00AF85C214DF2BE
:10448000096001F005F800214DF20A6001F000F822
:1044900081214DF20B6000F0FBFF00214DF20C601A
:1044A00000F0F6FFA6214DF20D6000F0F1FF0021B3
:1044B0004DF20E6000F0ECFFE5214DF20F6000F0D0
:1044C000E7FF01214DF2106000F0E2FF13214DF2F1
:1044D000116000F0DDFF01214DF2126000F0D8FF05
:1044E00054214DF2136000F0D3FF01214DF214600E
:1044F00000F0CEFF82214DF2156000F0C9FF0121CE
:104500004DF2166000F0C4FFCA214DF2176000F0B2
:10451000BFFF02214DF2186000F0BAFF00214DF2FA
:10452000196000F0B5FF02214DF21A6000F0B0FFF3
:1045300001214DF21B6000F0ABFF02214DF21C6027
:1045400000F0A6FF34214DF21D6000F0A1FF022112
:104550004DF21E6000F09CFF67214DF21F6000F0DD
:1045600097FF02214DF2206000F092FF84214DF26E
:10457000216000F08DFF02214DF2226000F088FFE3
:10458000A4214DF2236000F083FF02214DF224604C
:1045900000F07EFFB7214DF2256000F079FF022187
:1045A0004DF2266000F074FFCF214DF2276000F03D
:1045B0006FFF02214DF2286000F06AFFDE214DF20C
:1045C000296000F065FF02214DF22A6000F060FFD3
:1045D000F2214DF22B6000F05BFF02214DF22C60C6
:1045E00000F056FFFE214DF22D6000F051FF032137
:1045F0004DF22E6000F04CFF10214DF22F6000F0C4
:1046000047FF03214DF2306000F042FF33214DF2AD
:10461000316000F03DFF03214DF2326000F038FFC1
:104620006D214DF2336000F033FF55214FF470409F
:1046300000F02EFFAA214FF2010000F029FF5221C5
:104640004FF2020000F024FF08214FF2030000F0B7
:104650001FFF00214FF2040000F01AFFCC214FF49D
:10466000314000F015FF00214BF2011000F010FF67
:1046700005214FF4364000F00BFF70214FF4374016
:1046800000F006FF70214BF2017000F001FF0121E4
:104690004FF4384000F0FCFE03214BF6010000F01F
:1046A000F7FE03214BF6020000F0F2FE03214BF669
:1046B000030000F0EDFE02214FF43C4000F0E8FE64
:1046C00000214BF6014000F0E3FE00214BF60240D2
:1046D00000F0DEFED0214FF4494000F0D9FE022167
:1046E0004CF6011000F0D4FE50214CF6021000F000
:1046F000CFFE50214CF6031000F0CAFE50214CF6BC
:10470000041000F0C5FE00214FF4545000F0C0FE2C
:1047100055214FF4685000F0BBFE4FF4885000F074
:10472000A1FE7820FDF762FC4FF4245000F09AFEC1
:1047300010BD10B5E22000F095FE1D2000F086FEB1
:10474000022000F083FE042000F080FE6420FDF7CC
:104750004DFCE02000F086FE012000F077FE0A20EC
:10476000FDF738FCE02000F07DFE032000F06EFE37
:104770000C20FDF72FFC012000F074FE0A20FDF74D
:1047800029FCE62000F06EFE2F2000F05FFEFF20E7
:1047900000F05CFEFF2000F059FEB02000F062FE49
:1047A000202000F053FE002000F050FE032000F017
:1047B0004DFE40F21F3000F049FE012000F046FEA1
:1047C00040F2DF1000F042FE002000F03FFEB42077
:1047D00000F048FE042000F039FE40F21F4000F0D7
:1047E00035FE002000F032FE2E2000F02FFE0020CB
:1047F00000F02CFE002000F029FE002000F026FE34
:10480000002000F023FEB62000F02CFE022000F075
:104810001DFE4FF4037000F019FE002000F016FE9C
:10482000172000F013FE152000F010FE002000F00D
:104830000DFE002000F00AFEF02000F013FE032021
:1048400000F004FE292000F00DFED02000F00AFE4A
:10485000002000F0FBFDBE2000F004FE052000F06B
:10486000F5FDFE2000F0F2FD012000F0EFFD00203C
:1048700000F0ECFD002000F0E9FD002000F0E6FD76
:10488000B82000F0EFFD032000F0E0FD012000F073
:10489000DDFDBA2000F0E6FD012000F0D7FD10BDDF
:1048A00010B5112000F0DEFD7820FDF793FB3620D7
:1048B00000F0D8FD002000F0C9FD3A2000F0D2FD44
:1048C000052000F0C3FDB22000F0CCFD0C2000F06C
:1048D000BDFD0C2000F0BAFD002000F0B7FD332034
:1048E00000F0B4FD332000F0B1FDB72000F0BAFDB8
:1048F000352000F0ABFDBB2000F0B4FD322000F00D
:10490000A5FDC02000F0AEFD0C2000F09FFDC220F0
:1049100000F0A8FD012000F099FDC32000F0A2FDE9
:10492000102000F093FDC42000F09CFD202000F03A
:104930008DFDC62000F096FD0F2000F087FDD020F1
:1049400000F090FDA42000F081FDA12000F07EFD8C
:10495000E02000F087FDD02000F078FD002000F07E
:1049600075FD022000F072FD072000F06FFD0A20A7
:1049700000F06CFD282000F069FD322000F066FD9B
:10498000442000F063FD422000F060FD062000F0AE
:104990005DFD0E2000F05AFD122000F057FD14209E
:1049A00000F054FD172000F051FDE12000F05AFD09
:1049B000D02000F04BFD002000F048FD022000F068
:1049C00045FD072000F042FD0A2000F03FFD2820B1
:1049D00000F03CFD312000F039FD542000F036FDA0
:1049E000472000F033FD0E2000F030FD1C2000F0C9
:1049F0002DFD172000F02AFD1B2000F027FD1E20B2
:104A000000F024FD2A2000F02DFD002000F01EFD06
:104A1000002000F01BFD002000F018FDEF2000F04A
:104A200015FD2B2000F01EFD002000F00FFD0020E2
:104A300000F00CFD012000F009FD3F2000F006FD14
:104A4000292000F00FFD10BD10B5112000F00AFD67
:104A50007820FDF7BFFA362000F004FD482000F072
:104A6000F5FC3A2000F0FEFC552000F0EFFCF020B1
:104A700000F0F8FCC32000F0E9FCF02000F0F2FCAC
:104A8000962000F0E3FCB42000F0ECFC012000F0E4
:104A9000DDFCB62000F0E6FC0A2000F0D7FCA220E6
:104AA00000F0D4FCB72000F0DDFCC62000F0CEFC06
:104AB000B92000F0D7FC022000F0C8FCE02000F094
:104AC000C5FCC02000F0CEFC802000F0BFFC16200A
:104AD00000F0BCFCC12000F0C5FC192000F0B6FCC1
:104AE000C22000F0BFFCA72000F0B0FCC52000F001
:104AF000B9FC162000F0AAFCE82000F0B3FC40202E
:104B000000F0A4FC8A2000F0A1FC002000F09EFC34
:104B1000002000F09BFC292000F098FC192000F0F8
:104B200095FCA52000F092FC332000F08FFCE020E3
:104B300000F098FCF02000F089FC072000F086FCD3
:104B40000D2000F083FC042000F080FC052000F024
:104B50007DFC142000F07AFC362000F077FC542015
:104B600000F074FC4C2000F071FC382000F06EFC6A
:104B7000132000F06BFC142000F068FC2E2000F0E5
:104B800065FC342000F062FCE12000F06BFCF020BA
:104B900000F05CFC102000F059FC142000F056FCE2
:104BA0000E2000F053FC0C2000F050FC082000F018
:104BB0004DFC352000F04AFC442000F047FC4C201E
:104BC00000F044FC262000F041FC102000F03EFCE8
:104BD000122000F03BFC2C2000F038FC322000F0CA
:104BE00035FCF02000F03EFC3C2000F02FFCF020D3
:104BF00000F038FC692000F029FC7820FDF7EAF984
:104C0000212000F02FFC292000F02CFC10BD00001A
:104C100000B593B000BF00BFF948806940F48070D0
:104C2000F74988610846806900F48070009000BFF1
:104C300000BF00BF00BF00BF0846806940F02000F1
:104C400088610846806900F02000009000BF00BF26
:104C500000BF00BF00BF0846806940F020008861A7
:104C60000846806900F02000009000BF00BF00BF30
:104C700000BF00BF0846806940F480708861084624
:104C8000806900F48070009000BF00BF00BF00BFCB
:104C900000BF0846806940F00800886108468069C6
:104CA00000F00800009000BF00BF00BF88140F9004
:104CB0000220109001201190032012900FA9D148DA
:104CC000FBF7C2FE20200F900FA9CF48FBF7BCFED8
:104CD00010200F900FA9CC48FBF7B6FE01200F90D3
:104CE0000FA9C848FBF7B0FE01200F9010900FA944
:104CF000C648FBF7A9FE4FF02040C5490860C548EB
:104D00004860062088600021C148C16010214161CF
:104D100000218161C16141624FF4805181620021B3
:104D2000C1624FF48041016300214163816300202F
:104D3000089009900F200A9000200E900190029098
:104D4000012003900020079001AA08A9B048FCF7B1
:104D50004BFC3220FDF73EF9D32000F083FB00F03E
:104D600091F9AD49888000F08DF9AB49888000F059
:104D700089F9A9498880084680884FF6FF7101EAC1
:104D80000020A549888000F07DF9A349898808435F
:104D9000A14988800846808849F2413188427CD008
:104DA000042000F05FFB00F06DF99B49888000F063
:104DB00069F99949888000F065F997498880084623
:104DC00080884FF6FF7101EA00209349888000F047
:104DD00059F99149898808438F4988800846808815
:104DE00048F25251884203D147F289708A4988803B
:104DF0008948808847F289718842D0D0D42000F059
:104E000031FB00F03FF98449888000F03BF982498A
:104E1000888000F037F980498880084680884FF6FE
:104E2000FF7101EA00207C49888000F02BF97A4963
:104E300089880843784988800846808845F210317F
:104E40008842ACD0D32000F00DFB00F01BF9724972
:104E5000888000F017F97049888000F013F96E49D6
:104E60008880084680884FF6FF7101EA00206A4971
:104E7000888000F007F96849898808436649888076
:104E80000846808847F29671884288D055214FF4B1
:104E9000704000F0FDFAAA2100E07EE04FF2010030
:104EA00000F0F6FA52214FF2020000F0F1FA082168
:104EB0004FF2030000F0ECFA01214FF2040000F081
:104EC000E7FA4FF4454000F0CDFA00F0DBF8524924
:104ED0008880084680884FF6FF7101EA00204E491D
:104EE00088804CF2015000F0BDFA00F0CBF84A493E
:104EF00089880843484988800520FDF76BF84648B3
:104F0000808845F21051884247D0D32000F0AAFA99
:104F100000F0B8F84049888000F0B4F83E49888035
:104F200000F0B0F83C498880084680884FF6FF7151
:104F300001EA00203849888000F0A4F836498988C1
:104F40000843354988800846808849F6060188422A
:104F500023D0A12000F086FA00F094F82E49888032
:104F600000F090F82C498880084680884FF6FF7141
:104F700001EA00202849888000F084F826498988C1
:104F80000843254988800846808845F26171884237
:104F900003D141F66310204988801F4881881FA0F3
:104FA000FBF78CF91C48808847F28971884202D14E
:104FB000FFF776FC4CE01848808849F2413188427E
:104FC00002D1FDF709FA43E01348808845F2103119
:104FD000884202D1FDF7B6FC3AE00F48808847F2DC
:104FE0009671884202D1FFF72FFD31E00A48808890
:104FF00045F21051884217D1FEF71DFC28E0000051
:10500000001002400020014000140140000C01404B
:10501000D0010020040100A0180200204C434420CD
:1050200049443A25780D0A001148808849F606015E
:10503000884202D1FDF7E6FA0AE00D48808841F681
:105040006311884204D1FFF774FB642000F0D4F9A7
:105050000020FDF70BF900BF012211460548FBF7C0
:10506000A5FE00BF4FF6FF70FDF7E6F813B000BDD8
:1050700018020020000C014000BF011EA0F1010039
:10508000FBD1704708B50220FFF7F6FF0248008801
:105090000090BDF8000008BD0008006CF0B50546A2
:1050A000002400278B488079012805D18948808811
:1050B00041F66311884208D186488079F0B9854865
:1050C000808841F66311884218D1082D15D2DFE897
:1050D00005F00406080A0C0E101206250DE007253F
:1050E0000BE0042509E0052507E0012505E0002582
:1050F00003E0032501E0022500BF00BF082D1CD2FC
:10510000DFE805F00406090C0F12151800BF14E0C3
:1051100044F0800411E044F040040EE044F0C00488
:105120000BE044F0200408E044F0600405E044F0A3
:10513000A00402E044F0E00400BF00BF3627654849
:10514000808845F21051884200D13F026148808832
:1051500049F2413188420BD05E48808847F289711C
:10516000884205D05B48808847F29671884201D119
:1051700044F008042146384600F08AF955488088F2
:1051800041F6631188421DD004F0200068B15148F7
:10519000008850494988884214DA4E480688408879
:1051A0004C490880084646800CE04A480088494936
:1051B0004988884206DD4748068840884549088076
:1051C000084646804348808845F21051884252D1B3
:1051D0004049488900F046F9002000F037F93D4980
:1051E0004989491C88B200F03DF9002000F02EF9F1
:1051F00038494989891C88B200F034F93549098851
:10520000491EC1F30F2000F021F932494989C91C18
:1052100088B200F027F92F490978491EC8B200F07A
:1052200015F92C49888900F01DF9002000F00EF9CD
:1052300028498989491C88B200F014F9002000F03F
:1052400005F924498989891C88B200F00BF92149A4
:105250004988491EC1F30F2000F0F8F81D498989DB
:10526000C91C88B200F0FEF81A498978491EC8B2F4
:1052700000F0ECF82DE01749488900F0F3F8002021
:1052800000F0E4F8002000F0E1F812490988491E16
:10529000C1F30F2000F0DAF80E490978491EC8B2B0
:1052A00000F0D4F80B49888900F0DCF8002000F009
:1052B000CDF8002000F0CAF806494988491EC1F31C
:1052C0000F2000F0C3F803498978491EC8B200F0E6
:1052D000BDF8F0BD1802002010B502460C46454846
:1052E000808841F66311884247D142488079A8B945
:1052F00040480088401E801A82B23E49488900F02A
:10530000B1F8002000F0A2F8002000F09FF8101281
:1053100000F09CF8D0B200F099F816E035494889C1
:1053200000F0A0F8101200F091F8D0B200F08EF862
:1053300030490988491EC1F30F2000F087F82D4934
:105340000978491EC8B200F081F82A49888900F01E
:1053500089F8201200F07AF8E0B200F077F82549D9
:105360004988491EC1F30F2000F070F8214989785F
:10537000491EC8B200F06AF83AE01E48808845F23B
:105380001051884220D11B49488900F06BF8101257
:1053900000F05CF817494989491C88B200F062F8AE
:1053A000D0B200F053F81349888900F05BF820125E
:1053B00000F04CF80F498989491C88B200F052F876
:1053C000E0B200F043F813E00A49488900F04AF8D7
:1053D000101200F03BF8D0B200F038F80549888987
:1053E00000F040F8201200F031F8E0B200F02EF8A2
:1053F00010BD0000180200202DE9F0470446BE2031
:1054000000F030F8052000F021F8204602F077FB8C
:1054100007464FF066320C4B02F084FB054602F063
:1054200041FB1FFA80F9484600F010F8012000F017
:105430000DF8FF2000F00AF8002000F007F8002027
:1054400000F004F8BDE8F0876666044001B5BDF8D9
:1054500000000090BDF800000149088008BD000070
:105460000008006C01B5BDF800000090BDF8000018
:105470000149088008BD0000FE07006C0248008951
:10548000024908807047000018020020FE07006CE7
:10549000024A1080921C118070470000FE07006CC9
:1054A00000B585B000BF00BF1E48806940F008000D
:1054B0001C4988610846806900F00800009000BF20
:1054C00000BF00BF00BF00BF0846806940F0400039
:1054D00088610846806900F04000009000BF00BF6E
:1054E00000BF20200190012002900390032004902F
:1054F00001A90D48FBF7A8FA2020019001A90B484B
:10550000FBF7A2FA00BF012220210748FBF74EFC5F
:1055100000BF00BF012220210448FBF747FC00BF69
:1055200005B000BD00100240000C01400018014011
:1055300010B5FBF753FC4FF4E01000F0FBFF4820E0
:10554000FCF720FD4FF4E13001F088F8FFF7A8FFE9
:10555000FFF75EFBFCF796FD00F0C6FE002000F0B2
:1055600007F8012000F004F8FCF772FD002010BDE0
:1055700030B504460225084951F8241001FB05F214
:10558000064951F82400002100F02AF801210348BF
:105590000830015530BD0000387D00083C00002077
:1055A00010B501460023002207E00B4850F8210007
:1055B00030F8120000B15B1C521C084850F8210062
:1055C0009042F2D84FF47A705843044C54F821407A
:1055D000B0FBF4F080B210BD3C000020387D000824
:1055E00030B5034601E003F8011B141EA2F10102CD
:1055F000F9D130BD2DE9F04105460E46294807682E
:1056000000202949096881F8590027480068001DD1
:1056100001F040F850B92448006890F82C1001209F
:10562000884022490968814320480160681CD8B934
:10563000D6B11F4948681C49096888601A498268C0
:105640000968CA6018490968091D826851601649CD
:105650000968091D8160164A134909684A611146A3
:105660000968491C11601AE07C190F480068446001
:10567000BC4207D20C480168091D0E48006801F0C1
:105680002DF80CE008480168091D0B48006801F07E
:1056900025F80A480068844201D208480460BDE841
:1056A000F08100005C000020480000206000002025
:1056B00050850020500000204C0000207800002081
:1056C00010B5044601F030F831480068401C3049FC
:1056D00008603048006840B92E48046008460068F9
:1056E00001280DD100F016FA0AE02B48006838B9FD
:1056F00028480068C06AE16A884201D825480460E9
:1057000026480068401C2549086008460068606417
:1057100094F82C1001208840214909680843204949
:105720000860E16A01EB81011E4A02EB81014868D1
:10573000A0608268E260211D826851608160E16A38
:1057400001EB8101174A02EB81026261E16A01EB20
:105750008101144A52F82110491CE26A02EB8202CC
:10576000104B43F8221001F029F80B48006868B18B
:1057700008480068C06AE16A884207D24FF080504A
:1057800009490860BFF34F8FBFF36F8F10BD000052
:105790005800002048000020640000207400002011
:1057A000600000208082002004ED00E010B500F0D1
:1057B000BBFF10480068D0B90F4800F07FFF0F48CA
:1057C00000F07CFF0C480E4908600C480D49086049
:1057D00000221021052001F001FC0649086008465E
:1057E000006820B108A10348006801F0A7F800F0A4
:1057F000E5FF10BD90000020648500207885002022
:10580000880000208C000020546D725100000000C0
:1058100010B516E000F088FF0C48C068C468201D71
:1058200000F038FF0A480068401E0949086009482E
:105830000068401E0749086000F0C0FF204600F0E5
:105840005FF8044800680028E4D110BD3C850020C2
:10585000580000205400002070B504460D46206C0E
:1058600070B1216CE0680144E160D4E90210884223
:1058700001D32168E1602846226CE168FAF7F0FD67
:1058800070BD2DE9F04104460F4615464FF0000863
:10589000A66B206C48B9206800282CD1A06801F0C4
:1058A000C3FE80460020A06025E07DB93946226C09
:1058B0006068FAF7D5FD216C606808446060D4E93F
:1058C0000101884217D32068606014E03946226CD9
:1058D000E068FAF7C5FD216CE068411AE1602168D3
:1058E000E068884203D2216CA068411AE160022D71
:1058F00001D106B1761E701CA0634046BDE8F08160
:1059000010B50446206B00F097FF204600F094FF8E
:1059100010BD00000146084A126812680AB9012247
:1059200000E000220A600A6822B9034A1268D268BD
:10593000106800E0002070478800002030B54FF468
:105940002053174800F007042CB1C01D20F00700B9
:10595000134C041B1B1B0246124C22600024114DE9
:105960006C60D018083820F007000F4C206000242D
:105970000D4D2D686C600C4D2D682C601146441A3D
:105980004C60094C24680C60084D4C682C60084D34
:105990004C682C604FF00044064D2C6030BD000078
:1059A0008C8500209C000020A4000020AC0000207A
:1059B000A8000020B800002000BFFFF729FF06481C
:1059C00000680128F9D94FF0805004490860BFF3FE
:1059D0004F8FBFF36F8FF0E78082002004ED00E06F
:1059E0002DE9F04106460D4617469846069C0DB92E
:1059F000246000E02760E66325640121204601F071
:105A000035FB84F850800020A064BDE8F0810000E0
:105A10002DE9F05F82460F4690469B460A9E0C9CFD
:105A20004FEA8801A522206BFAF75FFDA8F101007B
:105A3000216B01EB800929F0070909F0070008B97B
:105A4000012000E0002028B94FF4587224A12DA0B5
:105A5000FAF734FC87B1002507E0795D04F13400E2
:105A60004155785D00B902E06D1C102DF5D300BFE3
:105A700000214320015502E0002084F83400202E4C
:105A800001D2012000E0002028B940F2973214A191
:105A90001CA0FAF713FC202E00D31F26E662E66452
:105AA00000202065201D00F016FE04F1180000F013
:105AB00012FE2461C6F12000A061646200206065CE
:105AC00084F8580084F859005A465146484600F078
:105AD000F9FB20600B9808B10B980460BDE8F09FBB
