:100851001208907D80E4FF12082D7D407F0112086F
:100861002D7D207F0212082D7D107F0312082D801F
:01087100E2A4
:100872007D027CEFDCFEDDFCEF1F70011E144E706A
:01088200F382
:010883002252
:05089000C2B6C2B52252
:02080000AD0742
:10080200E4FB7E007480A803088006CEA2E713CE24
:1008120013D8F8FFEDF582EF558224FF92B4D2B6D9
:0A082200C2B60BBB08DCD2B5C2B5AC
:01082C0022A9
:10082D00AE05AC07AF06120800AF04A80774800828
:10083D008002C313D8FCF4F5807F017E001208728C
:04084D007580FF2291
:030000000208846F
:0C088400787FE4F6D8FD7581070208516A
:00000001FF
