:040BA500021E00002C
:03000B0002098166
:10098100C0E0C0D075D000C000C0075389F04389D2
:1009910001051FE51F7002051EC3940CE51E94009E
:1009A1004029751E00751F00E521700DAFA078016B
:1009B100EF08800123D8FDF5A0E521B4010DAFA01A
:1009C1007801EF08800103D8FDF5A0D007D000D051
:0409D100D0D0E03270
:100AD60075A0FE120B2F1209208F20E520B401F617
:0E0AE6000521E521D3940140EDE4F52180E8DF
:100B2F005389F0438901758A18758CFCC28DD28C5C
:070B3F00D2A9D2AFC2B92216
:10092000E4F52920B1137F05FE120B7030B1FD7F75
:10093000057E00120B7075290120B0147F057E0022
:10094000120B7030B0FD7F057E00120B707529020E
:1009500020B2147F057E00120B7030B2FD7F057E41
:1009600000120B7075290320B3147F057E00120B53
:100970007030B3FD7F057E00120B70752904AF291E
:010980002254
:100B70007D027CEFDCFEDDFCEF1F70011E144E7069
:010B8000F381
:010B81002251
:060B8200C2A58F80D2A77E
:080B88007F027EEFDEFEDFFCC0
:010B90002242
:0A0B9100C2A6120B82C2A7020B8855
:100AF400CFCDCFCECCCE12083F7C007D0A12083F6A
:040B0400ED2430FFAD
:0A0B0800D2A6120B82C2A7020B88CE
:100B4600AE07BE0104ED148006BE0209ED243F4443
:060B560080FF120B91224A
:100B5C007F38120B917F0C120B917F06120B917F39
:040B6C0001020B91E6
:0A0B9B00AC03120B46AF04020B0876
:060AB3008B268A2789282A
:100AB900120B46E4FDAB26AA27A9288D827583006F
:0C0AC900120800FF6006120B080D80E907
:010AD50022FE
:0C0A80007F0AEA24FFFDE434FFFC7E0046
:080A8C008E228F238C248D259E
:100A94007F017E00E4FBEBC39525E5246480F874B4
:0E0AA4008098500AAC22AD2312082D0B80E87A
:010AB2002221
:040B12008A118B12A7
:100B1600120B46AA13EAD39400400D120A80AC11B8
:080B2600AD12120AF41A80ED71
:010B2E0022A4
:1009D500120B46C3EA64809480400B7F2B120B08F0
:1009E5008A0D8B0E800E7F2D120B08C3E49BF50E2E
:1009F500E49AF50DAA0CEAD39400400D120A80ACD6
:090A05000DAD0E120AF41A80ED89
:010A0E0022C5
:040A0F008A168B17A1
:100A1300120B46AA18EAD3940040297F10120A82C7
:100A2300AC16AD17CFCDCFCECCCE12083FEF540FBF
:100A3300FEC3940AEE5004243080022437FF120BC5
:040A4300081A80D13C
:010A4700228C
:040A48008A1B8B1C5E
:100A4C00120B46AA1DEAD394004028EA24FFFDE4C9
:100A5C0034FFFC7F027E00120A8CAC1BAD1CCFCD88
:100A6C00CFCECCCE12083FEF54012430FF120B082E
:030A7C001A80D20B
:010A7F002254
:030000000208945F
:0C089400787FE4F6D8FD7581290208DBAE
:10080000BB010CE58229F582E5833AF583E02250AD
:1008100006E92582F8E622BBFE06E92582F8E222F7
:0D082000E58229F582E5833AF583E4932211
:10082D00EF8DF0A4A8F0CF8CF0A428CE8DF0A42EDF
:02083D00FE2299
:10083F00BC000BBE0029EF8DF084FFADF022E4CC9D
:10084F00F875F008EF2FFFEE33FEEC33FCEE9DEC66
:10085F00984005FCEE9DFE0FD5F0E9E4CEFD22EDAC
:10086F00F8F5F0EE8420D21CFEADF075F008EF2FF6
:10087F00FFED33FD4007985006D5F0F222C398FDE7
:05088F000FD5F0EA2284
:1008A000020AD6E493A3F8E493A34003F68001F28E
:1008B00008DFF48029E493A3F85407240CC8C33359
:1008C000C4540F4420C8834004F456800146F6DF28
:1008D000E4800B0102040810204080900BA5E47E08
:1008E000019360BCA3FF543F30E509541FFEE4931D
:1008F000A360010ECF54C025E060A840B8E493A3E4
:10090000FAE493A3F8E493A3C8C582C8CAC583CA0E
:10091000F0A3C8C582C8CAC583CADFE9DEE780BEC6
:010BA900004B
:00000001FF
