:100862007D027CEFDCFEDDFCEF1F70011E144E707A
:01087200F392
:010873002262
:1008470043878075985053890F438920758BF475BA
:0B0857008DF4C2ABD28ED2ACD2AF2227
:080880008F993099FDC2992205
:0508880012084780FE8C
:03002300020800D0
:10080000C0E0C0F0C083C082C0D075D000C000C0BE
:1008100001C002C003C004C005C006C00730980C68
:10082000E599F4F5A0AF99120880C298D007D006D8
:10083000D005D004D003D002D001D000D0D0D082D7
:07084000D083D0F0D0E032BC
:030000000208747F
:0C087400787FE4F6D8FD75810702088843
:00000001FF
