:0B0BD8004D61747269784B65793A003A
:100AFB00120B977BFF7A0B79D87D017F01120B23A9
:100B0B001208008F22E52260F7FB7A00750C037D3B
:080B1B00017F02120B6480E867
:100BAB007D027CEFDCFEDDFCEF1F70011E144E702E
:010BBB00F346
:010BBC002216
:060BBD00C2A58F80D2A743
:080BC3007F027EEFDEFEDFFC85
:010BCB002207
:0A0BE300C2A6120BBDC2A7020BC38D
:100B4600CFCDCFCECCCE1209C87C007D0A1209C803
:040B5600ED2430FF5B
:0A0B5A00D2A6120BBDC2A7020BC306
:100B8100AE07BE0104ED148006BE0209ED243F4408
:060B910080FF120BE322BD
:100B97007F38120BE37F0C120BE37F06120BE37F08
:040BA70001020BE359
:0A0BED00AC03120B81AF04020B5A97
:060B23008B088A09890A13
:100B2900120B81E4FDAB08AA09A90A8D827583001D
:0C0B3900120989FF6006120B5A0D80E9BA
:010B4500228D
:0C0AC8007F0AEA24FFFDE434FFFC7E00FE
:080AD4008E0D8F0E8C0F8D10AA
:100ADC007F017E00E4FBEBC39510E50F6480F87496
:0E0AEC008098500AAC0DAD0E1209B60B80E8D2
:010AFA0022D9
:040B64008A0A8B0B63
:100B6800120B81AA0CEAD39400400D120AC8AC0AF1
:080B7800AD0B120B461A80EDD3
:010B80002252
:100A1D00120B81C3EA64809480400B7F2B120B5A1A
:100A2D008A168B17800E7F2D120B5AC3E49BF51778
:100A3D00E49AF516AA15EAD39400400D120AC8AC33
:090A4D0016AD17120B461A80EDDC
:010A5600227D
:040A57008A1A8B1B51
:100A5B00120B81AA1CEAD3940040297F10120ACAF8
:100A6B00AC1AAD1BCFCDCFCECCCE1209C8EF540FE5
:100A7B00FEC3940AEE5004243080022437FF120B7D
:040A8B005A1A80D1A2
:010A8F002244
:040A90008A1F8B200E
:100A9400120B81AA21EAD394004028EA24FFFDE442
:100AA40034FFFC7F027E00120AD4AC1FAD20CFCDF0
:100AB400CFCECCCE1209C8EF54012430FF120B5A0A
:030AC4001A80D2C3
:010AC700220C
:10080000E4F5087590FFC2932097137F05FE120B45
:10081000AB3097FD7F057E00120BAB75080120966B
:10082000147F057E00120BAB3096FD7F057E001213
:100830000BAB7508052095147F057E00120BAB30BD
:1008400095FD7F057E00120BAB7508092094147F7F
:10085000057E00120BAB3094FD7F057E00120BABC2
:1008600075080D7590FFC2922097147F057E0012C7
:100870000BAB3097FD7F057E00120BAB7508022095
:1008800096147F057E00120BAB3096FD7F057E002F
:10089000120BAB7508062095147F057E00120BAB7A
:1008A0003095FD7F057E00120BAB75080A2094146D
:1008B0007F057E00120BAB3094FD7F057E00120B8E
:1008C000AB75080E7590FFC2912097147F057E00CE
:1008D000120BAB3097FD7F057E00120BAB75080342
:1008E0002096147F057E00120BAB3096FD7F057EAF
:1008F00000120BAB7508072095147F057E00120BC4
:10090000AB3095FD7F057E00120BAB75080B209474
:10091000147F057E00120BAB3094FD7F057E001224
:100920000BAB75080F7590FFC2902097147F057E62
:1009300000120BAB3097FD7F057E00120BAB7508E4
:10094000042096147F057E00120BAB3096FD7F05C8
:100950007E00120BAB7508082095147F057E0012EF
:100960000BAB3095FD7F057E00120BAB75080C209C
:1009700094147F057E00120BAB3094FD7F057E0042
:08098000120BAB750810AF0863
:01098800224C
:03000000020BCC24
:0C0BCC00787FE4F6D8FD758122020AFB58
:10098900BB010CE58229F582E5833AF583E0225023
:1009990006E92582F8E622BBFE06E92582F8E2226D
:0D09A900E58229F582E5833AF583E4932287
:1009B600EF8DF0A4A8F0CF8CF0A428CE8DF0A42E55
:0209C600FE220F
:1009C800BC000BBE0029EF8DF084FFADF022E4CC13
:1009D800F875F008EF2FFFEE33FEEC33FCEE9DECDC
:1009E800984005FCEE9DFE0FD5F0E9E4CEFD22ED22
:1009F800F8F5F0EE8420D21CFEADF075F008EF2F6C
:100A0800FFED33FD4007985006D5F0F222C398FD5C
:050A18000FD5F0EA22F9
:00000001FF
