:10032E005772697465204F4B00202020202020201A
:10033E00200052656164204F4B0020202020202099
:02034E0020008D
:100003001203E1750C05AB27AA267D017F011203BC
:10001300AE1201738F28E528B401150527E5277073
:10002300020526750C05FBAA267D017F011203AE8E
:10003300E528B40216E527152770021526750C0569
:10004300AB27AA267D017F011203AEE52864037066
:100053003DAD27FF1203507F057E001203F5E52611
:10006300FD7F011203507F057E001203F57BFF7AAB
:1000730003792E7D017F0212030B7F027E001203A0
:10008300F57BFF7A0379377D017F0212030BE528A5
:1000930064046003020014FF1202B27526008F2766
:1000A3007F011202B2EFFEEE4226750C05AB27AAC2
:1000B300267D017F011203AE7BFF7A0379407D0128
:1000C3007F0212030B7F027E001203F57BFF7A038C
:0C00D30079487D017F0212030B0200142B
:1003F5007D027CEFDCFEDDFCEF1F70011E144E70EC
:01040500F303
:0104060022D3
:100407007D027CC7DCFEDDFCEF1F70011E144E7001
:01041700F3F1
:0104180022C1
:10017300E4F50820B1137F02FE1203F530B1FD7FD1
:10018300027E001203F575080120B0147F027E0081
:100193001203F530B0FD7F027E001203F5750802ED
:1001A30020B2147F027E001203F530B2FD7F027E7F
:1001B300001203F575080320B3147F027E001203B7
:1001C300F530B3FD7F027E001203F5750804AF0816
:0101D3002209
:06042900C2A58F80D2A7DE
:08042F007F027EEFDEFEDFFC20
:0104370022A2
:0A044400C2A6120429C2A702042F69
:10037200CFCDCFCECCCE12011E7C007D0A12011E43
:04038200ED2430FF37
:0A038600D2A6120429C2A702042F18
:1003CB00AE07BE0104ED148006BE0209ED243F44C6
:0603DB0080FF1204442221
:1003E1007F381204447F0C1204447F061204447FB8
:0403F10001020444BD
:0A044E00AC031203CBAF04020386D7
:06030B008B088A09890A33
:100311001203CBE4FDAB08AA09A90A8D82758300FB
:0C0321001200DFFF60061203860D80E969
:01032D0022AD
:0C027F007F0AEA24FFFDE434FFFC7E004F
:08028B008E0D8F0E8C0F8D10FB
:100293007F017E00E4FBEBC39510E50F6480F874E7
:0E02A3008098500AAC0DAD0E12010C0B80E8D5
:0102B100222A
:0403AE008A0A8B0B21
:1003B2001203CBAA0CEAD39400400D12027FAC0ABE
:0803C200AD0B1203721A80ED6D
:0103CA002210
:1001D4001203CBC3EA64809480400B7F2B12038606
:1001E4008A168B17800E7F2D120386C3E49BF517A6
:1001F400E49AF516AA15EAD39400400D12027FACD6
:0902040016AD171203721A80ED09
:01020D0022CE
:04020E008A1A8B1BA2
:100212001203CBAA1CEAD3940040297F1012028158
:10022200AC1AAD1BCFCDCFCECCCE12011EEF540FE8
:10023200FEC3940AEE5004243080022437FF1203D6
:04024200861A80D1C7
:010246002295
:040247008A238B2457
:10024B001203CBAA25EAD394004028EA24FFFDE44D
:10025B0034FFFC7F027E0012028BAC23AD24CFCD8A
:10026B00CFCECCCE12011EEF54012430FF120386E9
:03027B001A80D214
:01027E00225D
:100350008F088D091204587FA01202E2120419AF0F
:10036000081202E2120419AF091202E21204190281
:02037000046A1D
:0202B2008F08B3
:1002B4001204587FA01202E2120419AF081202E2DB
:1002C4001204191204587FA11202E2120419120333
:0D02D400908F09D20012046112046AAF0974
:0102E10022FA
:09045800D2A0D2A1C2A0C2A122CF
:07046A00C2A0D2A1D2A02222
:0202E200AD0766
:1002E400E4FB7E007480A803088006CEA2E713CE48
:1002F40013D8F8FFEDF582EF558224FF92A0D2A126
:06030400C2A10BBB08DCE6
:01030A0022D0
:10039000E4FFD2A0FED2A130A00DA8067480088090
:0D03A00002C313D8FC4207C2A10EBE08E83C
:0103AD00222D
:09046100A20092A0D2A1C2A122C6
:0F041900D2A0D2A1A2A09200C2A1A200E433FF00
:0104280022B1
:03000000020438BF
:0C043800787FE4F6D8FD758129020003EE
:1000DF00BB010CE58229F582E5833AF583E02250D6
:1000EF0006E92582F8E622BBFE06E92582F8E22220
:0D00FF00E58229F582E5833AF583E493223A
:10010C00EF8DF0A4A8F0CF8CF0A428CE8DF0A42E07
:02011C00FE22C1
:10011E00BC000BBE0029EF8DF084FFADF022E4CCC5
:10012E00F875F008EF2FFFEE33FEEC33FCEE9DEC8E
:10013E00984005FCEE9DFE0FD5F0E9E4CEFD22EDD4
:10014E00F8F5F0EE8420D21CFEADF075F008EF2F1E
:10015E00FFED33FD4007985006D5F0F222C398FD0F
:05016E000FD5F0EA22AC
:00000001FF
