:10009700E4F508F50912024C7B367D067F01120252
:1000A700857B347D077F01120285750E027BBE7A40
:1000B700FF7D0D7F021200FA750E027BA57A007D87
:1000C700017F02120134750E087BAA7A007D097F31
:1000D7000112016D7F017E00120000750E03AB094E
:1000E700AA087D017F011202190509E50970E505D6
:0300F7000880E19D
:06026000C2A58F80D2A7A9
:080266007F027EEFDEFEDFFCEB
:01026E00226D
:0A027B00C2A6120260C2A7020266CA
:1001FB00CFCDCFCECCCE1200427C007D0A12004276
:04020B00ED2430FFAF
:0A020F00D2A6120260C2A702026626
:10023600AE07BE0104ED148006BE0209ED243F445C
:0602460080FF12027B2282
:10024C007F3812027B7F0C12027B7F0612027B7FAF
:04025C000102027B1E
:0A028500AC03120236AF0402020FB0
:0601D8008B158A16891741
:1001DE00120236E4FDAB15AA16A9178D827583009F
:0C01EE00120003FF600612020F0D80E9F2
:0101FA0022E2
:0C01A5007F0AEA24FFFDE434FFFC7E002A
:0801B1008E118F128C138D14C6
:1001B9007F017E00E4FBEBC39514E5136480F874BA
:0E01C9008098500AAC11AD121200300B80E885
:0101D7002205
:040219008A0C8B0DB3
:10021D00120236AA0EEAD39400400D1201A5AC0CC1
:08022D00AD0D1201FB1A80ED7A
:0102350022A6
:1000FA00120236C3EA64809480400B7F2B12020FEF
:10010A008A0F8B10800E7F2D12020FC3E49BF5100D
:10011A00E49AF50FAA0EEAD39400400D1201A5AC99
:09012A000FAD101201FB1A80ED6B
:0101330022A9
:040134008A0C8B0D99
:10013800120236AA0EEAD3940040297F101201A7B2
:10014800AC0CAD0DCFCDCFCECCCE120042EF540FBC
:10015800FEC3940AEE5004243080022437FF1202B2
:040168000F1A80D119
:01016C002270
:04016D008A0C8B0D60
:10017100120236AA0EEAD394004028EA24FFFDE4D5
:1001810034FFFC7F027E001201B1AC0CAD0DCFCD6E
:10019100CFCECCCE120042EF54012430FF12020F19
:0301A1001A80D2EF
:0101A4002238
:0300000002026F8A
:0C026F00787FE4F6D8FD75811702009737
:10000300BB010CE58229F582E5833AF583E02250B2
:1000130006E92582F8E622BBFE06E92582F8E222FC
:0D002300E58229F582E5833AF583E4932216
:10003000EF8DF0A4A8F0CF8CF0A428CE8DF0A42EE4
:02004000FE229E
:10004200BC000BBE0029EF8DF084FFADF022E4CCA2
:10005200F875F008EF2FFFEE33FEEC33FCEE9DEC6B
:10006200984005FCEE9DFE0FD5F0E9E4CEFD22EDB1
:10007200F8F5F0EE8420D21CFEADF075F008EF2FFB
:10008200FFED33FD4007985006D5F0F222C398FDEC
:050092000FD5F0EA2289
:00000001FF
