:0601D400011C00011D00EA
:03000B000201A946
:1001A900C0E0C0F0C0D0758AA4758CFF051CE51CA1
:1001B90075F0648485F01CE51CC3951D5004D2902C
:0B01C9008002C290D0D0D0F0D0E03215
:10016400E4F519F51A1201EE1201038F19E5196469
:10017400017029051A531A03E51A7004F51D801C31
:10018400E51AB40105751D058012E51AB40205755A
:100194001D328008E51AB40303751D64AD1A7F018E
:0501A40012009A80C367
:100205007D027CC7DCFEDDFCEF1F70011E144E7005
:01021500F3F5
:0102160022C5
:10010300E4F51B20B1137F05FE12020530B1FD7F1C
:10011300057E00120205751B0120B0147F057E00C9
:1001230012020530B0FD7F057E00120205751B0229
:1001330020B2147F057E0012020530B2FD7F057EDA
:1001430000120205751B0320B3147F057E00120203
:100153000530B3FD7F057E00120205751B04AF1B3E
:010163002279
:1001DA0011083F065B4F666D7D077F6F777C395E3E
:0301EA0079710028
:10009A00EF14B4080050549000AF75F003A4C58360
:1000AA0025F0C583730200C70200CB0200CF02000D
:1000BA00D30200D70200DF0200E70200EFD2A480D9
:1000CA000ED2A48012D2A48016D2A4801AC2A4D2BC
:1000DA00A3D2A28016C2A4D2A3C2A2800EC2A4C274
:1000EA00A3D2A28006C2A4C2A3C2A274082DF8E6B3
:0900FA00F5807F017E0002020581
:1001EE005389F0438901758AA4758CFFC28DD28C18
:0701FE00D2A9D2AFC2B92261
:0300000002000EED
:0C000E00787FE4F6D8FD75811D020055D6
:10001A00020164E493A3F8E493A34003F68001F297
:10002A0008DFF48029E493A3F85407240CC8C333E7
:10003A00C4540F4420C8834004F456800146F6DFB6
:10004A00E4800B01020408102040809001D4E47E71
:10005A00019360BCA3FF543F30E509541FFEE493AB
:10006A00A360010ECF54C025E060A840B8E493A372
:10007A00FAE493A3F8E493A3C8C582C8CAC583CA9D
:10008A00F0A3C8C582C8CAC583CADFE9DEE780BE55
:0101ED000011
:00000001FF
