:0307C800202000EE
:03078E0001140053
:10074500E518FB3395E0FA750C0222C3E51A6480BF
:030755009481226A
:10010B00E51875F06312020285F018C3E5196480D7
:10011B00948D4005751901800CC3E5196480948199
:10012B00500375190CE51964027039E51875F00464
:10013B00120202AFF0EF7016D3E51A6480949D4063
:10014B0003751A01120750505C751A1D8057D3E5C1
:10015B001A6480949C4003751A011207505046751F
:10016B001A1C8041E51964046011E5196409600BE0
:10017B00E51964066005E519B40B16D3E51A64801E
:10018B00949E4003751A011207505019751A1E8060
:10019B0014D3E51A6480949F4003751A011207501B
:1001AB005003751A1FE51B75F01812020285F01B20
:1001BB00C3E51B648094805003751B17E51C75F019
:1001CB003C12020285F01CC3E51C64809480500332
:1001DB00751C3BE51D75F03C12020285F01DC3E555
:1001EB001D648094805003751D3BD3E51964809486
:0701FB008740037519012282
:100424001207457D017F011206E5E5191207477D94
:10043400047F011206E5E51A1207477D077F0112C2
:1004440006E5E51B1207477D017F021206E5E51C60
:100454001207477D047F021206E5E51D1207477D5A
:06046400077F020206E51D
:10000E00E513B4020B0516E51675F0068485F01699
:10001E00E513B4030874182516F806800BE513B41F
:10002E00040674182516F81612010BE516700CE569
:10003E0015B401077D011200E7800A1207457D0104
:10004E007F011206E5E516B4010CE515B401077D36
:10005E00041200E7800CE5191207477D047F011298
:10006E0006E5E516B4020CE515B401077F01120092
:10007E00F3800CE51A1207477D077F011206E5E5AE
:10008E0016B4030CE515B401077D011200FF800CB8
:10009E00E51B1207477D017F021206E5E516B40443
:1000AE000CE515B401077D041200FF800CE51C124F
:1000BE0007477D047F021206E5E516B4050CE5152B
:1000CE00B401077F021200F3800CE51D1207477D75
:1000DE00077F021206E502035D7BFF7A0779C87F70
:1000EE00011206C2227BFF7A0779C87D071206C26B
:0D00FE00227BFF7A0779C87F021206C2221A
:03000B000205A447
:0905A400C0E0C0D075D000C00712
:1005AD00758A66758CFC0512E51270020511C394EF
:1005BD00E8E51194034012751100751200E51570F0
:0905CD00047F0180027F008F15FC
:0705D600D007D0D0D0E032C5
:100671001207311207BE12070412035D1203C38F62
:1006810013E513B401036317FFE517600512000EAC
:0A06910080EA12061212042480E22F
:100758007D027CEFDCFEDDFCEF1F70011E144E7085
:01076800F39D
:01076900226D
:10076A007D027CC7DCFEDDFCEF1F70011E144E709B
:01077A00F38B
:01077B00225B
:09079100071817011C17003B01B9
:10046A007B00120003AD07227B00120003AD0722B6
:10047A00FFEDF582EF558224FF92B42275F00A84CB
:10048A00C454F0FEEF75F00A84EE25F0FF22120440
:10049A00AE02077F7E007401A80308227B001200C7
:0404AA0003AD072275
:0507BE00C2B5C2B62225
:02056900A907E0
:10056B00D2B5E4FB12049E8005C333CE33CED8F94B
:10057B00FFE912047CD2B6C2B60BBB08E7E4FB1250
:10058B00049E8005C333CE33CED8F912047AD2B68B
:08059B00C2B60BBB08E9C2B5B2
:0105A3002235
:0204AE00AD0798
:1004B000E4F9D2B5430501FB12049E8005C333CE97
:1004C00033CED8F912047AC2B6D2B60BBB08E9E42F
:1004D000FBD2B6C2B630B40DA8037401088002C3C3
:0F04E00033D8FC42010BBB08E8C2B5C2B4AF0170
:0104EF0022EA
:0507C300EF1204862284
:08000300120224FF1204862200
:03077C001204AEB6
:0F077F00EFC4540F75F00AA4FEEF540F2EFF22A3
:10035D00E4FD7F8E1205697A00791812046A7F8C8C
:10036D001205697A00791912046A7F881205697A73
:10037D0000791A1204727F861205697A00791B12B0
:10038D0004727F841205697A00791C1204A67F829B
:10039D001205697A00791D1204A67F801205697B0A
:1003AD00007A00791E120003AD077F8A1205697D60
:0603BD00807F8E0205693D
:100612007F8C12077C8F187F8812077C8F197F8648
:100622001204988F1A7F841204988F1B7F821204FF
:10063200988F1C7F801204988F1D7F8A1204988FD6
:020642001E2276
:1003C300E4F50820B1137F05FE12076A30B1FD7F03
:1003D300057E0012076A75080120B0147F057E00B0
:1003E30012076A30B0FD7F057E0012076A750802A6
:1003F30020B2147F057E0012076A30B2FD7F057EAE
:100403000012076A75080320B3147F057E001207E4
:100413006A30B3FD7F057E0012076A750804AF08D2
:0104230022B6
:1004F000CFCDCFCECCCE12027C7C007D0A12027C06
:10050000ED2430FF1207B61A227F0AEA24FFFDE429
:1005100034FFFC7E0022C2A58F80D2A71207A5C29D
:0D052000A722CFCDCFCECCCE12027CEF2291
:0807A5007F027EEFDEFEDFFCA7
:0107AD002229
:0807AE00C2A61205160207A500
:100731007F381207AE7F0C1207AE7F061207AE7F1D
:04074100010207AEFC
:0807B600D2A61205160207A5E8
:10071B00AE07BE0104ED148006BE0209ED243F4472
:06072B0080FF1207AE2260
:0A079B00AC0312071BAF040207B6FF
:0606C2008B088A09890A79
:1006C80012071BE4FDAB08AA09A90A8D82758300ED
:0C06D80012023DFF60061207B60D80E91B
:0106E40022F3
:08069B008E0D8F0E8C0F8D10E7
:1006A3007F017E00E4FBEBC39510E50F6480F874D3
:0E06B3008098500AAC0DAD0E12026A0B80E862
:0106C1002216
:0406E5008A0A8B0BE7
:1006E90012071BAA0CEAD39400400F12050912063F
:0A06F9009BAC0AAD0B1204F080EB7D
:0107030022D3
:10052D0012071BC3EA64809480400B7F2B1207B621
:10053D008A248B25800E7F2D1207B6C3E49BF525EB
:10054D00E49AF524AA23EAD39400400F1205091268
:0B055D00069BAC24AD251204F080EBDF
:010568002270
:0405DD008A288B29B4
:1005E10012071BAA2AEAD3940040257F1012050B9B
:1005F10012069BAC28AD29120522540FFEC3940AA2
:10060100EE5004243080022437FF1207B61A80D539
:0106110022C6
:040644008A2D8B2E42
:1006480012071BAA2FEAD39400401DEA24FFFDE4F9
:1006580034FFFC7F027E0012069BAC2DAD2E1205E6
:0806680022540112050180DD9E
:010670002267
:100704005389F0438901758A66758CFCC28DD28C3D
:07071400D2A9D2AFC2B92245
:030000000202D128
:0C02D100787FE4F6D8FD75812F02031839
:10020200C2D530F707B2D563F0FF05F030E70CB284
:10021200D5F4048463F0FF05F080018430D502F444
:020222000422B4
:10022400BB010689828A83E0225002E722BBFE02D8
:09023400E32289828A83E493220B
:10023D00BB010CE58229F582E5833AF583E0225076
:10024D0006E92582F8E622BBFE06E92582F8E222C0
:0D025D00E58229F582E5833AF583E49322DA
:10026A00EF8DF0A4A8F0CF8CF0A428CE8DF0A42EA8
:02027A00FE2262
:10027C00BC000BBE0029EF8DF084FFADF022E4CC66
:10028C00F875F008EF2FFFEE33FEEC33FCEE9DEC2F
:10029C00984005FCEE9DFE0FD5F0E9E4CEFD22ED75
:1002AC00F8F5F0EE8420D21CFEADF075F008EF2FBF
:1002BC00FFED33FD4007985006D5F0F222C398FDB0
:0502CC000FD5F0EA224D
:1002DD00020671E493A3F8E493A34003F68001F2C0
:1002ED0008DFF48029E493A3F85407240CC8C33322
:1002FD00C4540F4420C8834004F456800146F6DFF1
:10030D00E4800B010204081020408090078EE47EEB
:10031D00019360BCA3FF543F30E509541FFEE493E5
:10032D00A360010ECF54C025E060A840B8E493A3AC
:10033D00FAE493A3F8E493A3C8C582C8CAC583CAD7
:10034D00F0A3C8C582C8CAC583CADFE9DEE780BE8F
:01079A00005E
:00000001FF
