:020000040800F2
:100000007007002089010008DD0D00081D050008AB
:10001000D90D00085502000867150008000000000F
:10002000000000000000000000000000991200081D
:100030005902000800000000831100088513000821
:10004000A3010008A3010008A3010008A301000800
:10005000A3010008A3010008A3010008A3010008F0
:10006000A3010008A3010008A3010008A3010008E0
:10007000A3010008A3010008A3010008A3010008D0
:10008000A3010008A3010008A3010008A3010008C0
:10009000A3010008A3010008A30100085D020008F5
:1000A000A3010008A3010008A3010008A3010008A0
:1000B000E9130008A301000801140008A3010008C7
:1000C000A3010008A3010008A3010008A301000880
:1000D000A301000881140008A3010008A30100087F
:1000E000A3010008A3010008A301000800F002F822
:1000F00000F03AF80AA090E8000C82448344AAF188
:100100000107DA4501D100F02FF8AFF2090EBAE885
:100110000F0013F0010F18BFFB1A43F0010318473B
:10012000303E0000503E0000103A24BF78C878C12D
:10013000FAD8520724BF30C830C144BF04680C60ED
:10014000704700000023002400250026103A28BF35
:1001500078C1FBD8520728BF30C148BF0B60704739
:100160001FB51FBD10B510BD00F046F81146FFF7D2
:10017000F7FF01F073FF00F064F803B4FFF7F2FF3C
:1001800003BC01F017FB00000948804709480047FD
:10019000FEE7FEE7FEE7FEE7FEE7FEE7FEE7FEE737
:1001A000FEE7FEE704480549054A064B7047000094
:1001B00089130008ED00000870010020700700207E
:1001C000700300207003002070477047704770472D
:1001D000704710B500F008F8006810BD10B504466F
:1001E00000F002F8046010BD0048704710010020C4
:1001F00000487047100100207546FFF7F9FFAE4632
:1002000005006946534620F00700854618B020B522
:10021000FFF7C8FFBDE820404FF000064FF0000791
:100220004FF000084FF0000B21F00701AC46ACE89E
:10023000C009ACE8C009ACE8C009ACE8C0098D460B
:10024000704710B50446AFF300802046BDE810406B
:10025000FFF793BF00BFFEE7704700002DE9F041B4
:10026000202000F095F8002864D03348006800286A
:1002700060D0202000F086F8022000F09DF8404277
:100280002E490860042000F097F82D4908602D4A97
:100290002D492E4801F05EFF2D4A2E492E4800F0D0
:1002A00095FA2E4A2E492F4800F064FA2E4800682D
:1002B00003F0BEF8054621480068214A12688118FB
:1002C000284601F053F9294908602248B0F9000096
:1002D00003F0CAF806462548006803F0C5F807464B
:1002E00023480168384602F07FFF0546324616482B
:1002F0000168284601F0B8F91E4908601448B0F9B1
:10030000000001F0A9F81C4908601A480468084672
:10031000006820441949086017480068201A1849E5
:100320000860164800F0C8F91548016813480068CD
:1003300000F0E0F9BDE8F081148121423000002096
:1003400034000020200000201C00002018000020A5
:100350002800002026000020240000202E0000207D
:100360002C0000202A000020500000206C000020FB
:100370004C000020680000207000002038000020A1
:100380003C0000200149086070470000140401404F
:10039000014600200022074B1B6803EA0102054BBF
:1003A00014331B680B4013B10AB1012000E0002098
:1003B000704700000004014070B50546022D02D0D0
:1003C000042D14D10AE04FF0804001F02AF804B265
:1003D00000214FF0804001F03DF80AE0064801F0AE
:1003E00020F804B20021044801F034F801E00024B0
:1003F00000BF00BF204670BD000800402DE9F0415D
:10040000024600250026002000230024002791F842
:1004100003C00CF00F0591F803C00CF0100CBCF1F8
:10042000000F03D091F802C04CEA050591F800C016
:10043000BCF1000F31D0146800202BE04FF0010C0C
:100440000CFA00F3B1F800C00CEA03069E4220D17A
:1004500083004FF00F0C0CFA03F7BC4305FA03FCC2
:100460004CEA040491F803C0BCF1280F06D14FF008
:10047000010C0CFA00FCC2F814C00AE091F803C0A9
:10048000BCF1480F05D14FF0010C0CFA00FCC2F88A
:1004900010C0401C0828D1D31460B1F800C0BCF1D2
:1004A000FF0F34DD546800202EE000F1080C4FF0FF
:1004B000010808FA0CF3B1F800C00CEA03069E42EA
:1004C00021D183004FF00F0C0CFA03F7BC4305FA5F
:1004D00003FC4CEA040491F803C0BCF1280F05D1D9
:1004E00000F1080C08FA0CF8C2F8148091F803C067
:1004F000BCF1480F07D100F1080C4FF0010808FAD1
:100500000CF8C2F81080401C0828CED35460BDE817
:10051000F0810AB1016100E04161704700BFFEE770
:1005200021B1028842F48062028004E002884FF622
:10053000FF331A400280704770B502460024002540
:1005400000230020958A138B1B0445EA030626F03E
:100550007F4404EA01068E4201D1012000E0002020
:1005600070BD21B1028842F00102028004E00288DD
:100570004FF6FE731A400280704721B1028842F4A0
:100580008072028004E002884FF6FF631A40028006
:10059000704721B1028842F40072028004E00288B0
:1005A0004FF6FF531A400280704700002DE9F043D8
:1005B00085B004460D460026B1460427DFF8CC80FE
:1005C000A6884FF6C0700640684600F0FBFDDDF8D7
:1005D00008802F48B8FBF0F01FFA80F946EA0906B8
:1005E000A68020884FF6FE71084020800026294909
:1005F000286888420CD828684000B8FBF0F087B221
:10060000042F00DA04273E4309F10100208427E08B
:10061000E8884BF6FF71884206D1286800EB40005D
:10062000B8FBF0F087B209E0286800EBC00101EBED
:100630000010B8FBF0F087B247F48047C7F30B0017
:1006400008B947F0010747F4004006434FF496709D
:1006500009FB00F04FF47A7190FBF1F0401C20840C
:10066000A683208840F00100208026884FF6F530D0
:100670000640A8886989084306432680A8892989F5
:100680000843208105B0BDE8F083000000127A0025
:1006900040420F00A08601000146088AC0B27047A0
:1006A00012B141F0010102E04FF6FE7319400182E0
:1006B00070470182704700000268B2F5E15F02DD19
:1006C0004FF4E1520260026812F5E15F01DA084A74
:1006D00002600A68B2F5E15F02DD4FF4E1520A60A0
:1006E0000A6812F5E15F01DA014A0A60704700000A
:1006F000E0E3FFFF70B504460D46002C07DD012046
:100700001949086000201949C1F8BC0106E0002021
:100710001549086001201549C1F8BC01261E01DBFE
:10072000304600E0704281B2114800F08EFE002D8C
:1007300008DD01200C49091F086000200B49C1F8A1
:10074000B00107E000200849091F0860012007499F
:10075000C1F8B0012E1E01DB304600E0704281B2CC
:10076000034800F074FE70BDB88121420080214230
:10077000002C01402DE9F04106460F4690463B20F3
:1007800000F0FEF804463C2000F0FAF8054645EA81
:10079000042000B230803D2000F0F2F804463E20F4
:1007A00000F0EEF8054645EA042000B238803F200C
:1007B00000F0E6F80446402000F0E2F8054645EA7D
:1007C000042000B2A8F80000BDE8F0812DE9F04156
:1007D00006460F469046432000F0D2F804464420D7
:1007E00000F0CEF8054645EA042000B230804520EE
:1007F00000F0C6F80446462000F0C2F8054645EA77
:10080000042000B23880472000F0BAF8044648209F
:1008100000F0B6F8054645EA042000B2A8F800004A
:10082000BDE8F0812DE9F05F06460F4690469946F7
:10083000DDE90AAB3B2000F0A3F804463C2000F0C1
:100840009FF8054645EA042000B230803D2000F0C4
:1008500097F804463E2000F093F8054645EA042048
:1008600000B238803F2000F08BF80446402000F0B2
:1008700087F8054645EA042000B2A8F800004320A6
:1008800000F07EF80446442000F07AF8054645EA78
:10089000042000B2A9F80000452000F071F80446D9
:1008A000462000F06DF8054645EA042000B2AAF89B
:1008B0000000472000F064F80446482000F060F88B
:1008C000054645EA042000B2ABF80000BDE8F09F01
:1008D00010B5752000F054F810BD000000B585B0CB
:1008E0000121880500F04EFC0121082000F05AFC8F
:1008F0001C208DF813004FF44060ADF81000032069
:100900008DF8120004A91C48FFF778FD0020ADF80F
:1009100004004CF2503000904BF6FF70ADF806002A
:100920004FF48060ADF80A000001ADF80C00002023
:10093000ADF8080069461148FFF738FE01210F485D
:10094000FFF70FFE01216B2000F07AF800216C20E8
:1009500000F076F80921192000F072F806211A201B
:1009600000F06EF818211B2000F06AF818211C20F6
:1009700000F066F805B000BD000C014000580040D2
:1009800070B5044601212148FFF7F7FD20491F48B3
:1009900000F042F80022D0211C48FFF781FE1D49DB
:1009A0001A4800F039F821461848FFF782FE194925
:1009B000891C164800F030F801211448FFF7DDFDCE
:1009C0001349124800F028F80122D0210F48FFF700
:1009D00067FE0F49491C0D4800F01EF800210B4826
:1009E000FFF79EFD01210948FFF7D3FD08493F317C
:1009F000064800F011F80548FFF74EFE05460121B4
:100A00000248FFF78DFD284670BD000000580040E9
:100A1000010003008200070070B504460D4642F253
:100A2000107604E0701E061E01D1012070BD29461B
:100A30002046FFF781FD0128F4D10020F6E70000F1
:100A400070B504460D4601211348FFF796FD134982
:100A50001148FFF7E1FF0022D0210F48FFF720FEE9
:100A60000F490D48FFF7D8FF21460B48FFF721FE3D
:100A70000B49891E0848FFF7CFFF29460648FFF7B4
:100A800018FE0749891C0448FFF7C6FF01210248E8
:100A9000FFF77FFD70BD000000580040010003001B
:100AA0008200070010B500200E4908600E4800685B
:100AB00020F470400C4908600846006840F440503B
:100AC000086000200949C1F88C0100F011F80120EC
:100AD0000449086000F00CF800200449C1F89001B6
:100AE00010BD000090812142040C01400080214291
:100AF00010B5022001F0B4F910BD000010B50020BF
:100B00000E4908600E48006820F470400C490860E7
:100B10000846006840F44050086001200949C1F8C7
:100B20008C01FFF7E5FF012004490860FFF7E0FFB3
:100B300000200449C1F8900110BD000090812142BD
:100B4000040C01400080214270B50546002416487F
:100B5000006820F47040144908600846006840F4BA
:100B600000400860002614E0002010490860FFF7EC
:100B7000BFFF01200E49C1F890016006040E0B482A
:100B80008438006808B1601CC4B2FFF7B1FF701C64
:100B9000C6B2082EE8DB15B9FFF7B0FF01E0FFF79A
:100BA00081FF204670BD0000040C0140908121426D
:100BB0000080214270B504461248006820F470405D
:100BC000104908600846006840F440500860002062
:100BD0000D490860002512E0E0090B49091F086073
:100BE0006006040E01200949C1F89001FFF780FF5B
:100BF000002005490860FFF77BFF681CC5B2082D7F
:100C0000EADB70BD040C014090812142008021424A
:100C100010B50E48006820F470400C490860084682
:100C2000006840F440500860012009490860094903
:100C3000C1F89001FFF75CFF002005490860FFF74D
:100C400057FF00200349C1F8900110BD040C01407A
:100C50008C8121420080214210B50E48006820F4AA
:100C600070400C4908600846006840F44050086035
:100C70000020094908600949C1F88C01FFF738FFD5
:100C80000120054908600549C1F88C01FFF730FFD4
:100C900010BD0000040C01409081214200802142DF
:100CA00010B500241448006820F470401249086010
:100CB0000846006840F40040086001200F490860C1
:100CC000FFF716FF01200E49C1F89001FFF710FF52
:100CD00007E0601CC4B2FA2C03DDFFF7BDFF012062
:100CE00010BD0648803800680028F2D10349091D6C
:100CF000086000BFF4E70000040C01408C81214231
:100D0000008021422DE9F04106460F4614461D465B
:100D1000FFF77EFF002141EA4601C8B2FFF74AFF14
:100D2000FFF7BEFF20B1FFF797FF0120BDE8F0817C
:100D30003846FFF73FFFFFF7B3FFFFF769FF0121D9
:100D400001EB4601C8B2FFF735FFFFF7A9FF0DE041
:100D5000012C04D10020FFF7F7FE287003E00120EA
:100D6000FFF7F2FE2870601EC4B26D1C002CEFD19C
:100D7000FFF772FF0020D9E72DE9F04105460E4646
:100D800017469846FFF744FF002141EA4501C8B2E3
:100D9000FFF710FFFFF784FF20B1FFF75DFF012091
:100DA000BDE8F0813046FFF705FFFFF779FF00242B
:100DB0000CE018F80400FFF7FDFEFFF771FF18B113
:100DC000FFF74AFF0120EBE7601CC4B2BC42F0DB36
:100DD000FFF742FF0020E3E700BFFEE7704770B572
:100DE00000240EE00021204600F0EFF8002504E08A
:100DF000002000F0B6F9681CC5B2802DF8DB601C3D
:100E0000C4B2082CEEDB70BD08B50121082000F04B
:100E1000C9F914208DF8030003208DF802004FF467
:100E20008070ADF8000069460A48FFF7E7FA4FF412
:100E30000070ADF8000069460648FFF7DFFA0122AE
:100E400011020448FFF765FB012251020148FFF738
:100E500060FB08BD000C014070B50546002415E09C
:100E60008020204100EA05024FF400710E48FFF790
:100E700050FB012211020C48FFF74BFB00224FF4FC
:100E800080710948FFF745FB601CC4B2082CE7DB02
:100E9000012211020448FFF73CFB00224FF480714D
:100EA0000148FFF736FB70BD000C014010B5012270
:100EB00051020A48FFF72DFB012211020748FFF7F4
:100EC00028FB00224FF400710448FFF722FB0022A8
:100ED0004FF480710148FFF71CFB10BD000C01406E
:100EE00010B500224FF400710648FFF712FB0122F3
:100EF00011020448FFF70DFB012251020148FFF7E0
:100F000008FB10BD000C014070B5002406E0002570
:100F100000E06D1CB5F57A7FFBD3641CB4F57A7FD5
:100F2000F5D3FFF771FFAE2000F00BF9D52000F0EC
:100F300008F9802000F005F9A82000F002F93F2010
:100F400000F0FFF8D32000F0FCF8002000F0F9F8E2
:100F5000402000F0F6F8A12000F0F3F8C82000F0DF
:100F6000F0F8DA2000F0EDF8122000F0EAF8812025
:100F700000F0E7F8CF2000F0E4F8D92000F0E1F825
:100F8000F12000F0DEF8DB2000F0DBF8302000F08C
:100F9000D8F8A42000F0D5F8A62000F0D2F88D20D3
:100FA00000F0CFF8142000F0CCF8AF2000F0C9F822
:100FB000FFF715FF70BD10B50246012000E0504359
:100FC0000B1EA1F10101FAD110BD70B505460C460A
:100FD00045F0B00000F0B5F8102141EA141000F01F
:100FE000B0F804F00F0000F0ACF870BD2DE9F0414E
:100FF00005460E461746721ED206110E6A1E52068E
:10100000100EFFF7E2FF002409E0A7F12001134AC8
:1010100002EB0111085D00F0A4F8601CC4B2082CBA
:10102000F3DB721ED206110E6A1E012303EB42028D
:10103000D0B2FFF7CAFF00240BE0A7F12001074A56
:1010400002EB011204F10801505C00F08AF8601C08
:10105000C4B2082CF1DBBDE8F08100007038000854
:101060002DE9F04781460E4690461F4600241DE0BC
:10107000381B411E1020FFF79EFFB8FBF0F000F078
:101080000F050A2D08DA05F13000C2B23019C1B2DD
:101090004846FFF7ABFF07E005F13700C2B2301951
:1010A000C1B24846FFF7A2FF601CC4B2BC42DFDBFE
:1010B000BDE8F0872DE9F0478146884615461E4673
:1010C000002D06DB2B2241464846FFF78FFF2F46B7
:1010D00005E02D2241464846FFF788FF6F42002475
:1010E00017E0301B411E0A20FFF765FFB7FBF0F049
:1010F0000A21B0FBF1F201FB120000F1300A08EB0B
:101100000400401CC1B252464846FFF76FFF601C06
:10111000C4B2B442E5DBBDE8F0872DE9F0410746F3
:101120000E461546002407E02A5D3019C1B2384644
:10113000FFF75CFF601CC4B2285D0028F4D1BDE855
:10114000F08110B50446FFF7B1FE7820FFF784FE6A
:101150000020FFF781FE2046FFF77EFEFFF7C0FE6E
:1011600010BD10B50446FFF7A1FE7820FFF774FE0E
:101170004020FFF771FE2046FFF76EFEFFF7B0FE3E
:1011800010BD704729B1064AD2690243044BDA61A7
:1011900004E0034AD2698243014BDA6170470000E0
:1011A0000010024029B1064A92690243044B9A6139
:1011B00004E0034A92698243014B9A617047000040
:1011C0000010024030B500210022002400232D4DE4
:1011D0006D6805F00C0121B1042905D0082923D13F
:1011E00005E0294D056022E0274D05601FE0254DF3
:1011F0006D6805F47012234D6D6805F48034022586
:1012000005EB92421CB9214D554305600BE01D4D85
:101210006D6805F400351DB11C4D5543056002E0B5
:10122000194D5543056002E0174D056000BF00BF32
:10123000144D6D6805F0F0010909154D6B5C0568EA
:10124000DD4045600F4D6D6805F4E061090A104D01
:101250006B5C4568DD4085600A4D6D6805F4605142
:10126000C90A0B4D6B5C4568DD40C560054D6D6876
:1012700005F44041890B074D6B5CC568B5FBF3F580
:10128000056130BD0010024000127A0000093D00E7
:101290000000002010000020704710B500F002F898
:1012A00010BD00000CB5002001900090334800688C
:1012B00040F480303149086000BF3048006800F4D5
:1012C000003000900198401C0190009818B90198D6
:1012D000B0F5A06FF1D12948006800F4003010B1DA
:1012E0000120009001E0002000900098012843D1E7
:1012F0002348006840F01000214908600846006853
:1013000020F0030008600846006840F00200086012
:101310001A484068194948600846406848600846CD
:10132000406840F4806048600846406820F47C10C3
:1013300048600846406840F4E81048600846006885
:1013400040F08070086000BF0C48006800F000703A
:101350000028F9D00948406820F003000749486098
:101360000846406840F00200486000BF03484068FB
:1013700000F00C000828F9D10CBD0000001002405C
:10138000002002407047000010B51348006840F08C
:1013900001001149086008464068104908400E499C
:1013A0004860084600680E4908400B490860084636
:1013B000006820F4802008600846406820F4FE00A1
:1013C00048604FF41F008860FFF767FF4FF0006030
:1013D0000449086010BD0000001002400000FFF842
:1013E000FFFFF6FE08ED00E010B50121880700F0D0
:1013F0001BF8012803D10121800700F00FF810BD70
:1014000010B50121044800F00FF8012803D1012193
:10141000014800F003F810BD00080040CA430282F2
:1014200070470146888C704730B502460020002383
:101430000024158A05EA0103958905EA010413B120
:101440000CB1012000E0002030BD81867047A0F87B
:1014500040107047818470472DE9F04104462046D2
:1014600001F0A5FB05464FF03332044B01F0B6FB0B
:10147000074601F06DFBBDE8F08100003333E3BFA8
:1014800010B540F225511D4800F03EF810B31B483E
:1014900000F064F8C4B21A48007800F08000C8B9BF
:1014A0001748007800F0400060B10A2C03D00020FB
:1014B0001349087020E01248007840F0800010497D
:1014C000087019E00D2C06D10D48007840F040005E
:1014D0000B49087010E00A48007800F03F00094905
:1014E0000C5407480078401C0549087008460078ED
:1014F0003F2801DD0020087010BD000000380140C9
:1015000048000020C000002070B5024600240023DF
:101510000025002040F66A16B14200D100BFC1F399
:10152000421501F01F03012606FA03F3012D02D133
:101530009689334006E0022D02D1168A334001E03D
:10154000968A33400C12012606FA04F416883440B9
:1015500013B10CB1012000E0002070BD0146888865
:10156000C0F30800704700BFFEE700002DE9FC5FF4
:1015700004468946A9EB0400304908600846006823
:1015800001F015FB07462E4A2E4B01F027FB0546BE
:101590000E462D48006801F00AFB07464FF0663200
:1015A0002A4B01F01BFB82462A46334601F080F8A5
:1015B000CDE9000101F0CCFA254908600846006831
:1015C00021490860234800682149096808442149E5
:1015D00008600846006842F21071884201DD084642
:1015E00008E01C4800681C49884201DA084601E00E
:1015F00018480068174908600846006801F034FF81
:10160000804616480168404601F046FF06461048ED
:10161000006801F029FF804611480168404601F04A
:101620003BFF0746314601F0DFFD054601F000FFB4
:101630000C49086008460068BDE8FC9F8400002053
:10164000343333333333D33F7C0000206666E63FC8
:101650007800002080000020F0D8FFFF600000200C
:101660005C000020740000202DE9F05F05460E4666
:1016700014460021204601F0E5FF83460D4801682D
:10168000584601F009FF81463146284601F0D0FF57
:10169000834609480168584601F0FEFE82464946E5
:1016A00001F0A2FD804601F0C3FE07463846BDE8C2
:1016B000F09F00005800002054000020490050EA2C
:1016C000C12018BF04204A0D18BF40F0010040F2AD
:1016D000FF72B2EB515F08BF40F00200012808BF63
:1016E000052070472DE9F0414F1E00EBC70104466D
:1016F000D1E9000115461E4637F006020DD02A46F4
:10170000334601F06BFA7F1E04EBC703D3E90023D5
:1017100000F0CEFF37F00602F1D1022F25D0042FC2
:1017200013D0062F18BFBDE8F0812A46334601F0DA
:1017300055FAD4E90A2300F0BBFF2A46334601F0EC
:101740004DFAD4E9082300F0B3FF2A46334601F0EE
:1017500045FAD4E9062300F0ABFF2A46334601F0F0
:101760003DFAD4E9042300F0A3FF2A46334601F0F2
:1017700035FAD4E9022300F09BFF2A46334601F0F4
:101780002DFAD4E90023BDE8F04100F091BF012219
:1017900001F0FFBF00F08CBF002213461046114637
:1017A00001F042B8024A0020110701F0F2BF000028
:1017B00001FDFFFF00BF70472DE9F04D8D4F21F077
:1017C000004A86B005460C46BA452ADBAAEB07005C
:1017D00028430AD08848824501DC1AD1CDB106B031
:1017E0002846BDE8F04DFFF7D2BF844A844B284617
:1017F00001F0F4F907460E46824A834B28462146FB
:1018000001F0ECF906B03A463346BDE8F04D00F081
:101810004FBF0120FEF7E2FC06B0BDE8F04DFFF738
:10182000BBBF7A48824542DABAF1795F0BDA2846C3
:10183000FFF744FF042808BFFFF7B4FF284606B0AF
:101840002146BDE8F08D2A460B46104601F0C6F948
:10185000834602466E480E460B4606217844FFF743
:1018600041FF5A46334601F0B9F9804669488A4635
:101870005A46334604217844FFF734FF5A4633462C
:1018800001F0ACF900223B4600F012FF02460B4685
:101890004046514600F0C8FF2A46234601F09EF913
:1018A00006B02A462346BDE8F04D00F001BF2846A9
:1018B00024F0004100223D463B4601F08DFA4FF0F6
:1018C000FF3201F066FF0646024653480F460B46BC
:1018D00006217844FFF706FF32463B4601F07EF9C9
:1018E000CDE900014D4832463B4604217844FFF7DC
:1018F000F9FE32463B4601F071F900222B4600F01A
:10190000D7FE834602913046394600F079FE804684
:1019100043480D46504517DCDDE900015A46029B5D
:1019200000F082FF42462B4601F058F942462B4612
:1019300000F0BEFE012201F02CFF304A304B01F0D6
:101940003DFB304A304B4CE04FF0000A52460B460C
:10195000404600F0ADFECDE9031052462B4610463E
:10196000194601F03BF932463B4601F035FADDE914
:10197000033200F059FF06460F46DDE900015A46E2
:10198000029B00F051FF8346009101223046394608
:1019900001F0FFFE194A1A4B01F01EFA06460F46E7
:1019A00001224046294601F0F4FE5A46009B01F010
:1019B00015F932463B4601F001FB06460F4601226F
:1019C0005046294601F0E5FE0E4DDFF858802A46C4
:1019D000434601F001FA32463B4601F0FDF92A4642
:1019E000434601F0F9F9002CD8BF81F0004106B060
:1019F000BDE8F08D0000F03F0000F07F075C14337D
:101A000026A6913C182D4454FB21F93F0000E03FED
:101A100000260000162600008A250000A0250000F0
:101A20003333EF3FFB21E93F2DE9F84F04460D46E4
:101A300021F0004000917349814211DC72498842D3
:101A400001DC06D12CB120462946BDE8F84FFFF74E
:101A50009EBE6E48002DCCBF6D496E49BDE8F88F23
:101A60006D49814211DD6D498142D8BF4FF0FF368B
:101A70006DDD20462946FFF721FE042808BFFFF749
:101A800091FE20462946BDE8F88F6549654F25F04F
:101A90000045814233DD6449814219DD002632462A
:101AA0004FF080432046294600F002FE80468A46D9
:101AB00001222046294601F06CFE00223B4601F03F
:101AC0007DFA4246534600F0AFFE04460D463EE026
:101AD00001260022BA463B462046294600F0E8FD92
:101AE00080460F46002253462046294601F066FAFA
:101AF00042463B4600F098FE04460D4627E04B491F
:101B000081421BDDDFF828A1022600225346204631
:101B1000294601F063F800223B4600F0C9FD8046EB
:101B20000F46002253462046294601F047FA424616
:101B30003B4600F079FE04460D4608E003262246A7
:101B40002B4600203B4900F06FFE04460D4622461E
:101B50002B461046194601F041F88B468246024654
:101B60000B4601F03BF807460246334888460B46D1
:101B700006217844FFF7B6FD52465B4601F02EF889
:101B800082462E488B463A46434605217844FFF765
:101B9000A9FD3A46434601F021F802460B46002EC5
:101BA000504659460CDA00F083FD22462B4601F0E0
:101BB00015F801B022462B46BDE8F04F01F00CB9F4
:101BC00000F076FD22462B4601F008F81C4A7A44C4
:101BD00002EBC603D3E9002301F0F0F922462B46BD
:101BE00001F0ECF9174A7A4402EBC603D3E900236B
:101BF00001F0F2F8009A002AB8BF81F00041BDE878
:101C0000F88F0000000010440000F07F182D4454AD
:101C1000FB21F93FFB21F9BF0000DC3F0000203E23
:101C20000000F33F0000F03F0000E63F008003406B
:101C30000000F83F0000F0BFA22300006023000076
:101C4000FE220000C62200002DE9F04D9446CCF1A2
:101C5000000423F000464CEA0404594F46EAD474C9
:101C60009A46884621F00042BC4206D8454240EAE6
:101C7000050442EAD474BC4204D9BDE8F04D624682
:101C8000FFF788BDAAF14055A5F17F6555EA0C0420
:101C90000BD0022404EAAA744A4DDFF82CE144EA8E
:101CA000D87452EA000B04D00CE0BDE8F04DFFF709
:101CB000BBBE002C14BF012CBDE8F08D022C30D02F
:101CC000032C32D056EA0C0B0AD0BE4220D1BA42C5
:101CD00009D126F0804622F080423346114617E0B3
:101CE00000291ADB25E0DFF8E4B0FB44002C04BF38
:101CF000DBE90001BDE8F08D012C02BFDBE900014A
:101D000081F00041BDE8F08D022C0AD0032C0CD0EC
:101D1000BA4212D1B8F1000F0BDA2A482C49BDE8BB
:101D2000F08D28462B49BDE8F08D28467146BDE868
:101D3000F08D24482849BDE8F08D921B12153C2AED
:101D4000C4BF204F244E10DCBAF1000FBEBF12F109
:101D50003C0F00273E4608DB624600F065FD21F09F
:101D60000041FFF761FE07460E4694B1012C08BF03
:101D700086F000460DD0194A194B022C38463146E0
:101D800015D001F01BF92A46BDE8F04D114B01F0CA
:101D900015B9002213463846314600F09DFE04BFB7
:101DA0000220FEF71BFA38463146BDE8F08D01F0FF
:101DB00005F92A46BDE8F04D064B01F00DB80000CC
:101DC0000000F07F182D4454FB2109C05A22000066
:101DD000FB21F9BFFB210940FB21F93F075C1433CC
:101DE00026A6A13C2DE9F0410446E07800F0C006AB
:101DF000E07800F03F05607800F0010098B1EF1046
:101E00002846E91705EB5171C910A5EBC101491C22
:101E100001F0FF080B48006820B10A4841460268FB
:101E20003846904700BF607800F0080030B10548A0
:101E3000406818B1B011034A516888470020BDE8D6
:101E4000F08100000001002000B5034603E04FF4DC
:101E50007A7000F005F8181EA3F10103F7D100BD58
:101E600000EBC001C9004FF0E022516100219161F7
:101E70000521116100BF4FF0E021096901F48031B3
:101E80000029F8D004214FF0E022116170470000D2
:101E90002DE9F04F8DB00746884615469946DDE995
:101EA000166B0024002030806B49887B5A4605A9B8
:101EB00000F062FA18B1601E0DB0BDE8F08F664800
:101EC000807A00F01400002867D09DF81400000606
:101ED0009DF8151040EA01409DF8161040EA0120D7
:101EE0009DF81710084328609DF8180000069DF81B
:101EF000191040EA01409DF81A1040EA01209DF8AF
:101F00001B10084368609DF81C0000069DF81D101A
:101F100040EA01409DF81E1040EA01209DF81F1084
:101F20000843A8609DF8200000069DF8211040EAB3
:101F300001409DF8221040EA01209DF8231008433B
:101F4000E86004F11000C4B22868001401906868C9
:101F500000140290A86800140390E868001404902C
:101F600001984043029901FB0100039901FB010024
:101F7000049901FB010ABAF1706F02DBBAF1885FC4
:101F800005DD00F059FA00203080401E94E7B6F9D4
:101F9000000040F48070308000BF2F48807A00F04D
:101FA000400020B305A9601C085C095D40EA0120DF
:101FB00000B2A8F8000005A9E01C095C05AAA01C55
:101FC000105C41EA002000B2A8F8020005A9601DDB
:101FD000095C201D105C41EA002000B2A8F8040052
:101FE000A01DC4B2B6F9000040F0080030801A48C5
:101FF000408900F4C07008B305A9601C085C095D45
:1020000040EA012000B2388005A9E01C095C05AA5D
:10201000A01C105C41EA002000B2788005A9601D78
:10202000095C201D105C41EA002000B2B880A01DB0
:10203000C4B2B6F9000040F0700030800648807AE3
:1020400000F0030018B105A90819FFF7CBFE4846B8
:1020500000F07EF800202FE7000100201CB5FEF7FD
:1020600053FFFEF73BFC2FA207210420FFF755F892
:102070002EA201210420FFF750F8FEF729FC2C497D
:10208000087002230846027804210846FEF7E8FF9C
:1020900046E028482849294B294ACDE9001029491A
:1020A0002948FEF7BFFB05232448B0F90020012191
:1020B0000846FEF7FFFF05231F48B0F90020012165
:1020C0000220FEF7F7FF05231A48B0F9002001218E
:1020D0000320FEF7EFFF05231B48B0F9002008217D
:1020E0000120FEF7E7FF05231648B0F9002008217C
:1020F0000220FEF7DFFF05231148B0F90020082178
:102100000320FEF7D7FF0220FEF756F90F4908809B
:1021100003230846B0F900200D210420FEF7CAFF72
:10212000B7E7000053706565643A000049443A001F
:102130001400002028000020260000202400002099
:102140002E0000202C0000202A0000204200002049
:10215000704700002DE9F04F99B004460D46164631
:102160004FF07E574FF000084FF000094FF0000A83
:1021700012A813A918AB0EAACDE9001014A916A82D
:10218000FFF786FE18B1012019B0BDE8F08FBDF849
:102190004C0000F4807000287ED00E9801F064F9A5
:1021A00083464FF09D4101F081F807460F9801F0FA
:1021B0005BF983464FF09D4101F078F88046109816
:1021C00001F052F983464FF09D4101F06FF88146CE
:1021D000119801F049F983464FF09D4101F066F8EE
:1021E000824639464FF0804001F056F94946059045
:1021F00001F052F9414607904FF0404001F04CF990
:102200005146059001F048F90690079900F0ECFF5F
:10221000834600F0BDFFCDE90801FFF7CDFA4FF08E
:102220006632544BCDE90A0100F0D8FCCDE90C012F
:1022300000F00CFA206049464FF0804001F02CF984
:102240004946029001F028F9414604904FF0404081
:1022500001F022F94146029001F01EF90390049921
:1022600001F0F0F983464FF07E5100F0BDFF05907C
:1022700000F08EFFCDE9080139464FF0804001F0B3
:102280000BF94146039001F007F9494604904FF0DD
:10229000804001F001F900E068E05146039001F050
:1022A000FBF88346049900F09FFF059000F070FF53
:1022B000CDE90601DDE90823FFF7C6FC4FF06632E1
:1022C0002C4BCDE90A0100F089FCCDE90C0100F0AE
:1022D000BDF928605146504601F0DEF849460490A9
:1022E000484601F0D9F841460390404601F0D4F841
:1022F00039460190384601F0CFF80090019900F07E
:1023000073FF0290039901F09DF98346049901F04F
:1023100099F9059000F03CFFCDE908015146384697
:1023200001F0BAF849460490404601F0B5F8039030
:10233000049900F059FF4FF08041059001F0ACF88E
:10234000834600F025FFCDE90601DDE90823FFF70C
:102350007BFC4FF06632074BCDE90A0100F03EFCF2
:10236000CDE90C0100F072F9306001E002200BE7CA
:10237000002009E766A64C40F8B504460F4616460D
:102380002C4890F8240010B94FF0FF30F8BD2948D0
:10239000807A10B94FF0FF30F8E7264A1268917A38
:1023A000244A526810786B460222FEF7ABFC10B14B
:1023B0004FF0FF30EAE79DF801009DF8001040EA79
:1023C0000125A54203DA00203070401EDEE71948DF
:1023D00040684088B5EB600F17DD164A1268517CE3
:1023E000144A526810786B460122FEF78BFC10B13C
:1023F0004FF0FF30CAE79DF8000000F0100020B158
:1024000000F01AF86FF00100C0E7E2B2094B1B6858
:10241000D97A084B5B6818783B46FEF773FC10B11D
:102420004FF0FF30B2E795FBF4F0401E3070002013
:10243000ACE700008800002008B57048807A10B929
:102440004FF0FF3008BD002000906C4A1268D17B2D
:102450006A4A526810786B460122FEF78DFC10B173
:102460004FF0FF30EEE7654A12685179634A5268CF
:1024700010786B460122FEF77FFC10B14FF0FF3061
:10248000E0E75E4A126811795C4A526810786B4640
:102490000122FEF771FC10B14FF0FF30D2E7574830
:1024A00090F82400002853D00C200090534A126862
:1024B0001179524A526810786B460122FEF75CFC93
:1024C00010B14FF0FF30BDE73220FFF7BDFCC02058
:1024D00000904A48807A00F0010020B19DF8000089
:1024E00040F020000090454A12681179434A526832
:1024F00010786B460122FEF73FFC10B14FF0FF3021
:10250000A0E73E48407C10B10220009001E000208E
:1025100000903A4A1268D17B384A526810786B466C
:102520000122FEF729FC10B14FF0FF308AE70020AE
:102530000090324A12685179304A526810786B46DE
:102540000122FEF719FC002855D04FF0FF3079E743
:1025500004200090294A12681179284A526810789C
:102560006B460122FEF708FC10B14FF0FF3069E71F
:102570002248807C20B92148807A00F0010010B9FF
:102580004020009001E0602000901C4A1268117900
:102590001A4A526810786B460122FEF7EDFB10B123
:1025A0004FF0FF304EE73220FFF74EFC1348407CDF
:1025B00010B10120009001E0002000900F4A126845
:1025C000D17B0E4A526810786B460122FEF7D4FB8D
:1025D00010B14FF0FF3035E7084A12685179074AC9
:1025E00052681078054B10330122FEF7C5FB10B17D
:1025F0004FF0FF3026E7002024E70000880000208D
:102600002DE9F04106460F4600F0F2FB041E0D4690
:1026100018BF0120284320F00040C0F17F6000F186
:10262000E040C00F0ED0301C18BF0120384320F00E
:102630000040C0F17F6000F1E040C00F04BF012006
:10264000FDF7CCFD20462946BDE8F08121F000428F
:10265000A2F16052B2F5801F01F0004328BFD2F111
:102660007F6C0BD95FEA001C43EAC20242EB507058
:1026700018BF704728BF20F001007047B2F5801FD7
:10268000BCBF184670474FEA410C1CF5001F02D230
:10269000084600F0C8BF70B500F04AFB0000008992
:1026A000FFF7F6BF4FF00040A0F580007047000034
:1026B00010B591EA030F48BF83F0004300F1868410
:1026C000841A71EB030C05D2121943EB0C03001BA7
:1026D00061EB0C01DFF824E14FEA1154A4EB135C29
:1026E0001EEA430F18BF9EEA445F73D023EA0E032D
:1026F000DCF1200E21EA045143F4801332D322FA94
:102700000CFE10EB0E0023FA0CFE41EB0E01CCF197
:10271000200E03FA0EFE10EB0E0051F10001B1F590
:10272000801FCCF1200E32D201EB045112FA0EF2CE
:10273000BDE8104058BF7047401C38BF5FEA4202F6
:1027400018BF7047002814BF20F0010041F10001BC
:102750004FEA410313F5001F38BF7047A1F1C04194
:1027600000F034BB012A43EB0302ACF1200CDCF196
:102770001F0E32BF4FF0000E23FA0CF310EB0300D4
:1027800041EB0451B4EB115FD0D0A1EB045101F542
:10279000801149085FEA300001EB04510ED350F17B
:1027A000000038BF12FA0EFE08D1BDE81040C9E79C
:1027B000401C38BF5FEA4202CAD1C3E7BDE81040FF
:1027C0004FEA410313F5001F38BF7047A1F1C04124
:1027D00000F0FCBA9EEA445F08D011EA5E0FBDE843
:1027E000104004BF01F0004100207047BDE81040D8
:1027F00070B500F09DFA00BF64FBBE3E0000E0FF34
:1028000002494FF0000000F092BF00BF0000F87FC7
:10281000491058BFC1F140415B1058BFC3F140435C
:102820008B42EFF3008070472DE9C04130B4DFF8F0
:10283000A0C23CEA111418BF3CEA131400F0EC806B
:1028400081EA03051CEA111444EAD57418BF1CEA96
:10285000131500F0C780A4EB05044FF0004545EACE
:10286000C12145EAC32341EA505143EA525304F1DE
:102870007F74994204F500344FEAC0204FEAC22227
:1028800008BF904200F09C804FEA13650FF240169B
:10289000765D4FEA134506FB05F7C7F1807706FB27
:1028A00007F74FEAD737A7FB03687642C8F58038A9
:1028B000A7FB06CE38BFA8F1010807FB08E64FF0DA
:1028C000000EA6FB028CE6FB03CEDCF1000CCEF181
:1028D000004E38BFAEF1010EA6FB0C584FF00007BA
:1028E0004FF00005E6FB0E87A1FB08C6A0FB07CE54
:1028F00016EB0E0645F10005E1FB076515F1E04E0C
:102900007EBFA4F580345FEA46066D4116F180076C
:1029100045F100054FEA17274FEA066647EA0567C3
:10292000A6F1DE46B6F1805F4FEA15251FD938467D
:1029300024F0010C05EBC471BCF1FE6F01EB0C112E
:1029400002D8F0BCBDE8008124425CBF01F5801EC6
:102950009EEAC47F02D4F0BCBDE80081244238D492
:10296000F0BCA1F1C041BDE8004100F02FBA4FEA30
:10297000D22242EA43524FEAD323A7FB02864FEA10
:10298000D02040EA415007FB03661EEA0E0F4FEAD3
:10299000D12105FB026658BFA6EB0056B6EB0056E8
:1029A0004FEA520E4EEAC37E18EB0E0E56EB530E54
:1029B000BDD518EB02085E417F1C55F10005B6E756
:1029C0004FF480154FF000074FF000064FF000085D
:1029D000ADE7F0BC4FF0000001F1C04101F0004153
:1029E000BDE8008111EA0C1F0CEA131500D00CE0C1
:1029F00013EA0C1F00F025804FF00000F0BC81EAC4
:102A0000030101F00041BDE80081F0BCBDE80041D8
:102A100081EA030100F0DAB9F0BCBDE8004170B50D
:102A200000F086F9097EFC3E00F007B881EA030158
:102A30004FF0000001F00041704781EA030100F00F
:102A4000C5B9F0BCBDE800414FF000002149704716
:102A5000FFFDFBF9F7F5F4F2F0EEEDEBE9E8E6E463
:102A6000E3E1E0DEDDDBDAD8D7D5D4D3D1D0CFCDEA
:102A7000CCCBCAC8C7C6C5C4C2C1C0BFBEBDBCBB23
:102A8000BAB9B8B7B6B5B4B3B2B1B0AFAEADACAB1E
:102A9000AAA9A8A8A7A6A5A4A3A3A2A1A09F9F9EF8
:102AA0009D9C9C9B9A9999989797969595949393AA
:102AB000929191908F8F8E8E8D8C8C8B8B8A898941
:102AC00088888787868585848483838282818180C4
:102AD0000000FF070000F87F51EA030C17D41CF533
:102AE000801F58BFBCF5801F00F10680994218BFB7
:102AF000704708BF9042704707D711F5801F58BF35
:102B000013F5801F19D499427047894270471CF50C
:102B1000801F08D5BCF5801FF7D58B4218BF7047C2
:102B200008BF824270474FF4001C1CEB410F38BFB6
:102B30001CEB430F01D28B42704770B500F0F8F8E0
:102B4000922449004FF000514FF08053FFF760BED0
:102B50004FEA41034FEA5353A3F58063D3F11E03B9
:102B6000C8BFD3F1210C0CDD4FF0004242EAC12274
:102B700042EA505232FA03FC8CEAE17CACEBE170A1
:102B80007047102BC4BF0020704703F5787CBCF160
:102B9000FF3F04D06FF0004282EA2100704770B519
:102BA00000F0C6F84992248000207047F2E710F048
:102BB000004248BF4042B0FA80F310FA03F10AD055
:102BC000C3F11D0303F580634FEA415002EB03524A
:102BD00002EBD12170474FF000007047DFF848C189
:102BE00070B51CEA111E1EBF1CEA13159EEA0C0FDD
:102BF00095EA0C0F00F06F8081EA030423EA4C137E
:102C00004EEAD47E21EA4C1141F4801143F4801342
:102C1000AE44A1FB024CA0FB0365AEF17F7E3619EA
:102C200055EB0C05A1FB034C4CF10003A0FB021C6F
:102C300016EB0C06654153F10003094218BF46F03C
:102C4000010613F4007F0BD14FEA03314FEA053040
:102C5000340341EA155140EA16506FF003020AE0CE
:102C60004FEAC3214FEAC520F40241EA555140EA38
:102C700056506FF0020202EB2E4201EB025585EA3C
:102C8000CE710AD05FEA440C18BF24F0004450F122
:102C9000000041F1000120EAD47040F2FE7C624560
:102CA00000D270BDA84214BF4FF080444FF04044A2
:102CB000002E08BF0024BEF1806FA8BFA1F1C04163
:102CC000BDE8704080F282804FF0000001F1C04109
:102CD00001F0004170479EEA0C0F0CEA131518BF73
:102CE00095EA0C0F06D04FF0000081EA030E0EF0BB
:102CF000004170BD00F01CF88900013E00F007B8EB
:102D000000F009B84FEA430C5FEA5C5C08D081EA46
:102D1000030100F05BB84FEA410C5FEA5C5CF6D15E
:102D20004FF00000014970470000FF070000F87FE6
:102D30000EF1020E2EF0030E5EF8046B364205D43F
:102D4000012A43EB030515F5001F12D8012841EBBA
:102D5000010C1CF5001F0CD80ED14FEAD17C15F5E3
:102D6000001F0CEB4C0C0CF1020C08BF4CEBD37C9D
:102D700004E04FF0080C01E04FEAD37C0CEB4C056B
:102D800026FA05F606F00706B6F1040C06D20EEB9D
:102D9000860CBDE870404CF0010C6047DFE80CF099
:102DA000090B02024FF000414FF00000A1F5002195
:102DB00070BD19461046012851EB010418BFD4F527
:102DC000001484BF002001F0004170BD0808A0F588
:102DD00000114FEA3101704791EA030F10B581F0FD
:102DE00000413FF56DAC83F0004300F0EFB8000008
:102DF0002DE9F04101F5801CBCF5001FC0F2C38035
:102E00004FEA115C21EA0C510CF1FD0C41F48011E8
:102E10005FEA5C0C0CF5C07C01D3400049413DA445
:102E2000890241EA905187028E0E0A0CA45D04FBD0
:102E300004F602FB06F6C6F14046A4FB0662F60D58
:102E400046EA422606FB06F4A4FB01235242C3F1E4
:102E5000404338BF5B1EA6FB02420024E6FB03246E
:102E6000D20B42EA4446A6FB0623A1FB02E2A3FBE7
:102E700007E4A4184FF0000252F10002E3FB014204
:102E80006442C2F1404E38BFAEF1010EA6FB0423EE
:102E90004FF00002E6FB0E32A2FB03464FF00004A7
:102EA000B61954F10004E2FB0264A1FB06E6A4FBA0
:102EB00007E816EB08064FF0000858F10008E4FB9D
:102EC00001687642C8F1405838BFA8F10108A2FB5A
:102ED00006E4A3FB08E52D194FF0000454F10004AB
:102EE000E2FB0854A1FB05E6A7FB04E818EB060883
:102EF0004FF0000656F10006E1FB048618F12005AC
:102F000056F10006A809A8F11B08B10908F03F080E
:102F1000B8F10A0F40EA86601CD901EB0C51BDE8FC
:102F2000F08100BFFCF5EEE8E2DDD8D3CFCBC7C31C
:102F3000C0BDB9B6B4B1AEACA9A7A5A3A19F9D9BD6
:102F40009A9896959392908F8D8C8B898887868599
:102F500084838281A0FB006800FB01F208EB420839
:102F6000B8EB872807D5341858EB0104D5D5401C99
:102F700051F10001D1E7341A78EB0104CDD4401EA1
:102F800071F10001C9E75FEA4C0C5FEA9C5C0DD16E
:102F900005D34FF0000001F00041BDE8F081BDE82D
:102FA000F04170B5FFF7C4FE6DDBFFBEBDE8F04138
:102FB0004FF00000004970470000F87F10B591EA1B
:102FC000030F48BF83F000433FF57AAB841A71EBDF
:102FD000030C07D212198CF0004C43EB0C03001BBE
:102FE00061EB0C01DFF8A4E14FEA1154A4EB135C90
:102FF0001EEA430F18BF9EEA445F00F0B08023EA48
:103000006E03524221EA0451C3EB6E0338BF5B1ECC
:10301000DCF1200E25D322FA0CFE10EB0E0043FA51
:103020000CFE41EB0E01CCF1200E03FA0EFE10EB6C
:103030000E0051F10001CCF1200E29D412FA0EF24B
:1030400001EB0451BDE8104058BF7047401C1CBF45
:10305000B2F1004F704700280CBF491C20F001005E
:10306000704712EB020E43EB030218BF4FF0010E44
:103070004EEA4202ACF1200CDCF11E0E54D943FAA8
:103080000CFE10EB0E0051F1FF31CCF11E0ED5D528
:103090000EF1010E12FA0EFE404141EB010101EB6F
:1030A000445C5FEA5C5C10D910EBDE7001EB04510C
:1030B00038BFBEF1004FBDE8104018BF7047002870
:1030C0000CBF491C20F00100704730D24FEAD42CCD
:1030D00011F5001124F400641BD0B1FA81F20B3A0F
:1030E000A41AA41ED2F12003914030FA03F319432D
:1030F000904001EBCC71002C01EB0451BDE8104075
:10310000A8BF704701F1C0414FF0000001F000413D
:103110007047B0FA80F310FA03F100D110BDE41A41
:10312000173C4805C90AE4E701EB045110BD4910FA
:1031300001EB0451BDE810404FEA300002E04FF0CF
:10314000000170474A0008BF0042F8D0B2F5001FE6
:1031500028BF704701F000414FF0000070479EEA21
:10316000445F07D011EA5E0FBDE8104004BF0021A4
:1031700000207047BDE8104070B5FFF7D9FD00BFD3
:1031800040DFF63E83F00041104670470000E0FF4C
:1031900043004FEAD30C4FEA3C0C43401FBF4007AB
:1031A0000CF1605113F0FE4F70471CF0006F03D11B
:1031B00000200CF0004170470CF0004343EA5070CF
:1031C00010B540EACC0000F0E8F900BF0000009222
:1031D0004FEA0001FFF7FABD4FF000414FF0000049
:1031E000A1F500217047000090EA010F48BF81F06F
:1031F000004100F12E82421A3CBF801A89184FEA22
:10320000D0524FF07F4C1CEA410FA2EBD15318BFB4
:103210009CEA026F00F03B804FF0004C4CEA00202B
:103220004CEA012121FA03FC10EB0C0C1ED202F136
:10323000FF325FEA1C2040EBC25038BF70471CF0E1
:103240007F0F4FEA400C18BFBCF17F4F38BF70476B
:10325000C3F12003994008BF20F00100BCF17F4F6B
:1032600038BF7047A0F1C04000F0DDB94FEA3C0024
:10327000000A40EBC25028BF1CF0FF0F4FEA400C81
:10328000E6D018BFBCF17F4F38BF7047EAE79CEA31
:10329000026F05D010EA5C0F08BF00F000407047D5
:1032A00010B500F07AF900BF64FBBE3E4FF47F0C0E
:1032B0001CEAD0121EBF1CEAD11392EA0C0F93EA4B
:1032C0000C0F00F0858090EA010F48BF42F4807235
:1032D00040F4000C41F400002CF07F4120F07F40CE
:1032E00000B58142A2EB03020FF2081CACEB504E7A
:1032F000C0F100009EF800E04FEA4E0E00FB0EFC0D
:1033000038BF49004FEA2C1C02F5FA020CFB0EF301
:103310004FEACE1E4FEA112C4FEAC1210EEB635E3D
:1033200042EB22420EFB0CFC4FEA1C5300FB031144
:103330004FEA112C4FEA01310EFB0CFC4FEADC4C3A
:1033400000FB0C11C14228BF09184CEB03335DF898
:1033500004EB10EB410143EBC250B2F57C0F38BFD8
:10336000704729D512F0F00F1CBF00F1C04000F0EB
:1033700000407047008182838485868788898B8C92
:103380008D8E8F919293959697999A9C9D9FA0A2CE
:10339000A3A5A7A8AAACAEB0B2B3B5B7B9BCBEC01E
:1033A000C2C5C7C9CCCED1D4D7D9DCDFE2E6E9ECBF
:1033B000F0F3F7FAFE0000004FEA400C0CF1807CBD
:1033C000BCF17E4F28BF7047B0F1C04000F02BB970
:1033D00090EA010F0CEAD11348BF42F480726245B3
:1033E00038BF634507D213F47F0F16D080EA01007F
:1033F00000F00040704710B500F0CFF8097EFC3EA9
:1034000000F005B880EA010000F00040704780EA53
:10341000010000F0004000F006B912F47F0F04BF75
:103420000248704780EA010000F0FDB80000C07F4C
:1034300041000B0ED3F19E0208D950F400034FEA6D
:10344000032323FA02F048BF4042704710B500F052
:10345000A4F800BF49922480002070476FF000421A
:1034600082EA20007047000010F0004148BF40424F
:10347000B0FA80F310FA03F2C3F19D030BD051EAC6
:10348000C35101EB1220530638BF704700F1010011
:1034900008BF20F0010070474FF47F0C1CEAD012E7
:1034A0001EBF1CEAD11392EA0C0F93EA0C0F00F036
:1034B000478090EA010F48BF42F480724FF0004C01
:1034C0004CEA00204CEA012102EB0302A0FB0113AD
:1034D000A2F50002002918BF43F001035B0028BFDA
:1034E0004FEA330342EB22425FEA132C4CEBC2500B
:1034F0002EBFBCEB436FB2F57C0F70474FEA036CF5
:10350000BCF1004F08BF20F00100B2F57C0F38BFBE
:1035100070470BD582F0FF0212F5803FC8BF70479D
:1035200000F1C040D8BF00F00040704700F5000C2B
:103530005FEA4C0C48BF7047B0F1C04000F073B870
:1035400090EA010F0CEAD11348BF42F48072624541
:1035500038BF634504D280EA010000F000407047A4
:1035600010B500F01AF800BF8900013E00F007B85E
:1035700000F009B85FEA410C5FEA1C6C08D080EAF1
:10358000010000F050B85FEA400C5FEA1C6CF6D115
:103590004FF00040A0F5800070470EF1020E2EF0B3
:1035A000030E5EF8044B244204D44FEA4102B2F108
:1035B0007F4F11D84FEA4003B3F17F4F0CD80ED1A3
:1035C0004FEAD07CB2F17F4F0CEB4C0C0CF1020CAB
:1035D00008BF4CEBD17C04E04FF0080C01E04FEA4F
:1035E000D17C0CEB4C0324FA03F404F00704B4F18F
:1035F000040C06D20EEB840CBDE810404CF0010C1C
:103600006047DFE80CF0070802024FF00040A0F529
:10361000800010BD0846420018BFD2F1807288BFFA
:1036200000F0004010BDFF2141EAD050C0057047B6
:1036300080F0004090EA010F7FF5DDAD81F00041A0
:1036400000F007B890EA010F48BF81F000413FF554
:10365000D2AD421A04D882F00042A0EB020011441D
:103660004FEAD0524FF07F4C1CEA410FA2EBD153EE
:1036700018BF9CEA026F4AD04FF0004C4CEA002081
:103680004CEA012121FA03FCB0EB0C0C0FD412F030
:10369000FE0F36D05FEA4C001DD5001240EBC25041
:1036A00038BF70471CF03F0F18BF70470BE0A2F106
:1036B00001025FEA1C2040EBC25038BF70471CF08B
:1036C0007F0F18BF7047C3F12003994014BF401EFD
:1036D00020F00100704780084FEA122308BF7047AE
:1036E000B0FA80FCA2EB0C02CCF1280C60FA0CF0D2
:1036F00093EA122F04BF00EBC25070474FEAC37029
:103700007047130A5FEADC1008BF7047F6E79CEACF
:10371000026F04D010EA5C0F08BF0020704710B59C
:10372000FFF73BFF40DFF63E81F0004070470CF0B2
:103730000F03092B08BF082000F059800A2B0BD07B
:10374000082B18BF704708BF1CF0400F0AD04FF07D
:1037500000004FF0000170471CF0400F18BF4FF001
:10376000004070471CF0100F08D020F0704300F0AC
:103770007F4242EAD3014FEA4370704700F0604055
:1037800021F07F4242EA000201F07F4040EA72707D
:1037900070474FF0FF0C4CF4E06C1CEA11531CBF57
:1037A0009CEA030C9445C2BFDA4201EB0251704718
:1037B000002B0DD0BCF1000F0FD0002A01F000410A
:1037C000A4BF41F0E04141F07F614FF0000070473D
:1037D00001F000414FF00000704750EA01334FF014
:1037E0009B0C18BF4CF0806C7FF40AA870471CF447
:1037F000801F11D01CF4E02F03D06FEACC314900B8
:1038000070474FF04050EFF3008222F0704242EADE
:10381000000282F3008870474FF0000070470000FC
:1038200075191A0C6A231B1C1F207274433B413804
:10383000393A6B6C376F06246D6E700068000004B7
:1038400076005401F7FD000183000000000800002D
:103850000001001832000500000020410000D242A3
:10386000295C0F3E9A99993E3333733F295C0F3E92
:103870000000000000000000000000000000000048
:10388000000000F8000000000000003330000000DD
:1038900000100C06100C06000000000000000000E4
:1038A00040C07840C0784000043F04043F04040056
:1038B000007088FC08300000001820FF211E000066
:1038C000F008F000E018000000211C031E211E007B
:1038D00000F00888700000001E2123241927211001
:1038E00010160E00000000000000000000000000A4
:1038F000000000E01804020000000007182040004B
:1039000000020418E000000000402018070000003A
:10391000404080F0804040000202010F010202009E
:10392000000000F0000000000101011F0101010082
:10393000000000000000000080B0700000000000E7
:103940000000000000000000000101010101010170
:103950000000000000000000003030000000000007
:1039600000000000806018040060180601000000DC
:1039700000E010080810E000000F102020100F00D9
:10398000001010F8000000000020203F2020000060
:1039900000700808088870000030282422213000B8
:1039A00000300888884830000018202020110E00C0
:1039B0000000C02010F8000000070424243F240069
:1039C00000F80888880808000019212020110E003E
:1039D00000E0108888180000000F112020110E0050
:1039E00000380808C83808000000003F0000000048
:1039F0000070880808887000001C222121221C0009
:103A000000E010080810E0000000312222110F0031
:103A1000000000C0C00000000000003030000000C6
:103A20000000008000000000000080600000000036
:103A3000000080402010080000010204081020004F
:103A4000404040404040400004040404040404009A
:103A5000000810204080000000201008040201002F
:103A6000007048080808F00000000030360100002F
:103A7000C030C828E810E0000718272423140B00E2
:103A80000000C038E0000000203C2302022738205C
:103A900008F8888888700000203F202020110E0040
:103AA000C030080808083800071820202010080037
:103AB00008F808080810E000203F202020100F0020
:103AC00008F88888E8081000203F202023201800EC
:103AD00008F88888E8081000203F20000300000054
:103AE000C03008080838000007182020221E0200F5
:103AF00008F808000008F808203F210101213F20B4
:103B0000000808F8080800000020203F20200000DE
:103B100000000808F8080800C08080807F000000CE
:103B200008F888C028180800203F20012638200007
:103B300008F8080000000000203F2020202030006E
:103B400008F8F800F8F80800203F003F003F200088
:103B500008F830C00008F808203F200007183F0090
:103B6000E01008080810E0000F10202020100F00BF
:103B700008F808080808F000203F210101010000B2
:103B8000E01008080810E0000F18242438504F00F7
:103B900008F8888888887000203F2000030C3020B7
:103BA00000708808080838000038202121221C00F5
:103BB000180808F8080818000000203F200000003E
:103BC00008F808000008F808001F202020201F0027
:103BD0000878880000C83808000007380E01000087
:103BE000F80800F80008F800033C0700073C030051
:103BF000081868808068180820302C03032C3020B7
:103C00000838C800C83808000000203F2000000025
:103C100010080808C838080020382621202018007D
:103C2000000000FE020202000000007F4040400051
:103C3000000C30C000000000000000010638C00089
:103C400000020202FE000000004040407F00000031
:103C50000000040202020400000000000000000056
:103C60000000000000000000808080808080808054
:103C7000000202040000000000000000000000003C
:103C800000008080808000000019242222223F2032
:103C900008F8008080000000003F112020110E0075
:103CA0000000008080800000000E11202020110004
:103CB000000000808088F800000E112020103F20B6
:103CC0000000808080800000001F2222222213003A
:103CD000008080F0888888180020203F2020000085
:103CE0000000808080808000006B9494949360003A
:103CF00008F8008080800000203F210000203F2045
:103D000000809898000000000020203F2020000044
:103D1000000000809898000000C08080807F000034
:103D200008F8000080808000203F24022D30200011
:103D3000000808F8000000000020203F20200000BC
:103D40008080808080808000203F20003F20003FD6
:103D50008080008080800000203F210000203F20E4
:103D60000000808080800000001F202020201F0095
:103D7000808000808000000080FFA12020110E00C4
:103D80000000008080808000000E112020A0FF80B5
:103D9000808080008080800020203F212000010062
:103DA00000008080808080000033242424241900B7
:103DB000008080E0808000000000001F20200000C4
:103DC0008080000000808000001F202020103F2005
:103DD000808080000080808000010E300806010095
:103DE00080800080008080800F300C030C300F003A
:103DF00000808000808080000020312E0E31200065
:103E0000808080000080808080818E701806010094
:103E100000808080808080000021302C22213000B2
:103E200000000000807C020200000000003F4040D3
:103E300000000000FF00000000000000FF00000084
:103E40000002027C800000000040403F00000000B3
:103E5000000601010202040400000000000000004E
:103E6000555555555555C53F7D6FEB0312D6D4BFFB
:103E70005544880E55C1C93F3B8F68B52882A4BF01
:103E800088B20175E0EF493F09F7FD0DE13D023FC2
:103E90004B2D8A1C273A03C0C88A599CE52A00404A
:103EA00059018D1B6C06E6BF82922EB1C5B8B33F97
:103EB0004FBB610567ACDD3F182D4454FB21E93F42
:103EC0009BF681D20B73EF3F182D4454FB21F93F31
:103ED000E2652F227F2B7A3C075C143326A6813CB7
:103EE000BDCBF07A8807703C075C143326A6913C62
:103EF000C4EB98999999C9BF711623FEC671BCBFCE
:103F00006D9A74AFF2B0B3BF9AFDDE522DDEADBF35
:103F10002F6C6A2C44B4A2BF0D5555555555D53F4D
:103F2000FF8300922449C23F6E204CC5CD45B73F68
:103F3000513DD0A0660DB13FEB0D76244B7BA93FE0
:103F400011DA22E33AAD903F0000000000000000CB
:103F5000703F000800000020C00000002801000899
:103F600030400008C0000020B006000044010008F6
:103F7000000000000102030401020304060708090F
:103F8000020406080000000000000000000000001D
:103F90000000000000000000000000000000000021
:103FA0000000000000000000000000000000000011
:103FB000000000000000000000000000000080BFC2
:103FC00000000000000048430000003F9A99993E1D
:103FD000A69BC43A9A9919BF000000000000000097
:103FE00000000000000000000000000000000000D1
:103FF0000000000000000000203800083C380008E5
:1040000000000000000000000000000000000000B0
:1040100000000000000000000000000000000000A0
:104020004838000801000000010000000100000005
:04000005080000ED02
:00000001FF
