:10017C001200F28F1BE51B60F77FF47E0112015316
:09018C00AD1B7F0112008F80E71A
:1001A9007D027CEFDCFEDDFCEF1F70011E144E703A
:0101B900F352
:0101BA002222
:1000F200E4F51C20B1137F02FE1201A930B1FD7F8D
:10010200027E001201A9751C0120B0147F027E003C
:100112001201A930B0FD7F027E001201A9751C02F6
:1001220020B2147F027E001201A930B2FD7F027E4E
:10013200001201A9751C0320B3147F027E00120174
:10014200A930B3FD7F027E001201A9751C04AF1C09
:01015200228A
:1001950011083F065B4F666D7D077F6F777C395E83
:0301A5007971006D
:10008F00EF14B4080050549000A475F003A4C58376
:10009F0025F0C583730200BC0200C00200C4020039
:1000AF00C80200CC0200D40200DC0200E4D2A4801B
:1000BF000ED2A48012D2A48016D2A4801AC2A4D2C7
:1000CF00A3D2A28016C2A4D2A3C2A2800EC2A4C27F
:1000DF00A3D2A28006C2A4C2A3C2A274082DF8E6BE
:0300EF00F5802277
:0801BB007F017EE3DEFEDFFAA6
:0101C3002219
:10015300AD07AC06E4F519F51AED25E0FFEC33FE27
:10016300C3E51A9FE5199E500FB2A51201BB051AEC
:09017300E51A70E5051980E1228E
:03000000020003F8
:0C000300787FE4F6D8FD75811C02004AED
:10000F0002017CE493A3F8E493A34003F68001F28A
:10001F0008DFF48029E493A3F85407240CC8C333F2
:10002F00C4540F4420C8834004F456800146F6DFC1
:10003F00E4800B0102040810204080900195E47EBB
:10004F00019360BCA3FF543F30E509541FFEE493B6
:10005F00A360010ECF54C025E060A840B8E493A37D
:10006F00FAE493A3F8E493A3C8C582C8CAC583CAA8
:10007F00F0A3C8C582C8CAC583CADFE9DEE780BE60
:0101A8000056
:00000001FF
