:060A3000C2A58F80D2A7D1
:080A36007F027EEFDEFEDFFC13
:010A3E002295
:0A0A5700C2A6120A30C2A7020A3636
:1009CB00CFCDCFCECCCE12083F7C007D0A12083F94
:0409DB00ED2430FFD8
:0A09DF00D2A6120A30C2A7020A369F
:100A0600AE07BE0104ED148006BE0209ED243F4484
:060A160080FF120A5722C6
:100A1C007F38120A577F0C120A577F06120A577F2B
:040A2C0001020A5762
:0A0A6100AC03120A06AF040209DF1D
:0609A8008B228A23892442
:1009AE00120A06E4FDAB22AA23A9248D82758300C8
:0C09BE00120800FF60061209DF0D80E93E
:0109CA00220A
:0C0975007F0AEA24FFFDE434FFFC7E0052
:080981008E1E8F1F8C208D21BA
:100989007F017E00E4FBEBC39521E5206480F874C8
:0E0999008098500AAC1EAD1F12082D0B80E88E
:0109A700222D
:0409E9008A118B12D2
:1009ED00120A06AA13EAD39400400D120975AC1130
:0809FD00AD121209CB1A80EDC6
:010A050022CE
:10089400120A06C3EA64809480400B7F2B1209DF9E
:1008A4008A0D8B0E800E7F2D1209DFC3E49BF50E9B
:1008B400E49AF50DAA0CEAD39400400D120975AC24
:0908C4000DAD0E1209CB1A80EDF6
:0108CD002208
:0408CE008A168B17E4
:1008D200120A06AA18EAD3940040297F1012097757
:1008E200AC16AD17CFCDCFCECCCE12083FEF540F02
:1008F200FEC3940AEE5004243080022437FF12090A
:04090200DF1A80D1A7
:0109060022CE
:040907008A1B8B1CA0
:10090B00120A06AA1DEAD394004028EA24FFFDE44C
:10091B0034FFFC7F027E00120981AC1BAD1CCFCDD6
:10092B00CFCECCCE12083FEF54012430FF1209DF9B
:03093B001A80D24D
:01093E002296
:0C0A3F0048656C6C6F20776F726C64006F
:10093F00120A1C7B317D017F01120A617B397D0216
:10094F007F01120A617B387D037F01120A617B39B7
:10095F007D047F01120A617BFF7A0A793F7D017F57
:06096F00021209A880FE3F
:03000000020A4BA6
:0C0A4B00787FE4F6D8FD75812402093F95
:10080000BB010CE58229F582E5833AF583E02250AD
:1008100006E92582F8E622BBFE06E92582F8E222F7
:0D082000E58229F582E5833AF583E4932211
:10082D00EF8DF0A4A8F0CF8CF0A428CE8DF0A42EDF
:02083D00FE2299
:10083F00BC000BBE0029EF8DF084FFADF022E4CC9D
:10084F00F875F008EF2FFFEE33FEEC33FCEE9DEC66
:10085F00984005FCEE9DFE0FD5F0E9E4CEFD22EDAC
:10086F00F8F5F0EE8420D21CFEADF075F008EF2FF6
:10087F00FFED33FD4007985006D5F0F222C398FDE7
:05088F000FD5F0EA2284
:00000001FF
